{
  "_format": "hh-sol-artifact-1",
  "contractName": "MyEpicNFT",
  "sourceName": "contracts/MyEpicNFT.sol",
  "abi": [
    {
      "inputs": [],
      "stateMutability": "nonpayable",
      "type": "constructor"
    },
    {
      "anonymous": false,
      "inputs": [
        {
          "indexed": true,
          "internalType": "address",
          "name": "owner",
          "type": "address"
        },
        {
          "indexed": true,
          "internalType": "address",
          "name": "approved",
          "type": "address"
        },
        {
          "indexed": true,
          "internalType": "uint256",
          "name": "tokenId",
          "type": "uint256"
        }
      ],
      "name": "Approval",
      "type": "event"
    },
    {
      "anonymous": false,
      "inputs": [
        {
          "indexed": true,
          "internalType": "address",
          "name": "owner",
          "type": "address"
        },
        {
          "indexed": true,
          "internalType": "address",
          "name": "operator",
          "type": "address"
        },
        {
          "indexed": false,
          "internalType": "bool",
          "name": "approved",
          "type": "bool"
        }
      ],
      "name": "ApprovalForAll",
      "type": "event"
    },
    {
      "anonymous": false,
      "inputs": [
        {
          "indexed": false,
          "internalType": "address",
          "name": "sender",
          "type": "address"
        },
        {
          "indexed": false,
          "internalType": "uint256",
          "name": "tokenId",
          "type": "uint256"
        },
        {
          "indexed": false,
          "internalType": "string",
          "name": "svg",
          "type": "string"
        }
      ],
      "name": "NewEpicNFTMinted",
      "type": "event"
    },
    {
      "anonymous": false,
      "inputs": [
        {
          "indexed": true,
          "internalType": "address",
          "name": "from",
          "type": "address"
        },
        {
          "indexed": true,
          "internalType": "address",
          "name": "to",
          "type": "address"
        },
        {
          "indexed": true,
          "internalType": "uint256",
          "name": "tokenId",
          "type": "uint256"
        }
      ],
      "name": "Transfer",
      "type": "event"
    },
    {
      "inputs": [
        {
          "internalType": "address",
          "name": "to",
          "type": "address"
        },
        {
          "internalType": "uint256",
          "name": "tokenId",
          "type": "uint256"
        }
      ],
      "name": "approve",
      "outputs": [],
      "stateMutability": "nonpayable",
      "type": "function"
    },
    {
      "inputs": [
        {
          "internalType": "address",
          "name": "owner",
          "type": "address"
        }
      ],
      "name": "balanceOf",
      "outputs": [
        {
          "internalType": "uint256",
          "name": "",
          "type": "uint256"
        }
      ],
      "stateMutability": "view",
      "type": "function"
    },
    {
      "inputs": [
        {
          "internalType": "uint256",
          "name": "tokenId",
          "type": "uint256"
        }
      ],
      "name": "getApproved",
      "outputs": [
        {
          "internalType": "address",
          "name": "",
          "type": "address"
        }
      ],
      "stateMutability": "view",
      "type": "function"
    },
    {
      "inputs": [
        {
          "internalType": "address",
          "name": "owner",
          "type": "address"
        },
        {
          "internalType": "address",
          "name": "operator",
          "type": "address"
        }
      ],
      "name": "isApprovedForAll",
      "outputs": [
        {
          "internalType": "bool",
          "name": "",
          "type": "bool"
        }
      ],
      "stateMutability": "view",
      "type": "function"
    },
    {
      "inputs": [],
      "name": "makeAnEpicNFT",
      "outputs": [],
      "stateMutability": "nonpayable",
      "type": "function"
    },
    {
      "inputs": [],
      "name": "name",
      "outputs": [
        {
          "internalType": "string",
          "name": "",
          "type": "string"
        }
      ],
      "stateMutability": "view",
      "type": "function"
    },
    {
      "inputs": [
        {
          "internalType": "uint256",
          "name": "tokenId",
          "type": "uint256"
        }
      ],
      "name": "ownerOf",
      "outputs": [
        {
          "internalType": "address",
          "name": "",
          "type": "address"
        }
      ],
      "stateMutability": "view",
      "type": "function"
    },
    {
      "inputs": [
        {
          "internalType": "uint256",
          "name": "tokenId",
          "type": "uint256"
        },
        {
          "internalType": "string",
          "name": "colorIndex",
          "type": "string"
        }
      ],
      "name": "pickRandomColor",
      "outputs": [
        {
          "internalType": "string",
          "name": "",
          "type": "string"
        }
      ],
      "stateMutability": "view",
      "type": "function"
    },
    {
      "inputs": [
        {
          "internalType": "uint256",
          "name": "tokenId",
          "type": "uint256"
        }
      ],
      "name": "pickRandomFirstWord",
      "outputs": [
        {
          "internalType": "string",
          "name": "",
          "type": "string"
        }
      ],
      "stateMutability": "view",
      "type": "function"
    },
    {
      "inputs": [
        {
          "internalType": "uint256",
          "name": "tokenId",
          "type": "uint256"
        }
      ],
      "name": "pickRandomSecondWord",
      "outputs": [
        {
          "internalType": "string",
          "name": "",
          "type": "string"
        }
      ],
      "stateMutability": "view",
      "type": "function"
    },
    {
      "inputs": [
        {
          "internalType": "uint256",
          "name": "tokenId",
          "type": "uint256"
        }
      ],
      "name": "pickRandomThirdWord",
      "outputs": [
        {
          "internalType": "string",
          "name": "",
          "type": "string"
        }
      ],
      "stateMutability": "view",
      "type": "function"
    },
    {
      "inputs": [
        {
          "internalType": "address",
          "name": "from",
          "type": "address"
        },
        {
          "internalType": "address",
          "name": "to",
          "type": "address"
        },
        {
          "internalType": "uint256",
          "name": "tokenId",
          "type": "uint256"
        }
      ],
      "name": "safeTransferFrom",
      "outputs": [],
      "stateMutability": "nonpayable",
      "type": "function"
    },
    {
      "inputs": [
        {
          "internalType": "address",
          "name": "from",
          "type": "address"
        },
        {
          "internalType": "address",
          "name": "to",
          "type": "address"
        },
        {
          "internalType": "uint256",
          "name": "tokenId",
          "type": "uint256"
        },
        {
          "internalType": "bytes",
          "name": "_data",
          "type": "bytes"
        }
      ],
      "name": "safeTransferFrom",
      "outputs": [],
      "stateMutability": "nonpayable",
      "type": "function"
    },
    {
      "inputs": [
        {
          "internalType": "address",
          "name": "operator",
          "type": "address"
        },
        {
          "internalType": "bool",
          "name": "approved",
          "type": "bool"
        }
      ],
      "name": "setApprovalForAll",
      "outputs": [],
      "stateMutability": "nonpayable",
      "type": "function"
    },
    {
      "inputs": [
        {
          "internalType": "bytes4",
          "name": "interfaceId",
          "type": "bytes4"
        }
      ],
      "name": "supportsInterface",
      "outputs": [
        {
          "internalType": "bool",
          "name": "",
          "type": "bool"
        }
      ],
      "stateMutability": "view",
      "type": "function"
    },
    {
      "inputs": [],
      "name": "symbol",
      "outputs": [
        {
          "internalType": "string",
          "name": "",
          "type": "string"
        }
      ],
      "stateMutability": "view",
      "type": "function"
    },
    {
      "inputs": [
        {
          "internalType": "uint256",
          "name": "tokenId",
          "type": "uint256"
        }
      ],
      "name": "tokenURI",
      "outputs": [
        {
          "internalType": "string",
          "name": "",
          "type": "string"
        }
      ],
      "stateMutability": "view",
      "type": "function"
    },
    {
      "inputs": [
        {
          "internalType": "address",
          "name": "from",
          "type": "address"
        },
        {
          "internalType": "address",
          "name": "to",
          "type": "address"
        },
        {
          "internalType": "uint256",
          "name": "tokenId",
          "type": "uint256"
        }
      ],
      "name": "transferFrom",
      "outputs": [],
      "stateMutability": "nonpayable",
      "type": "function"
    }
  ],
  "bytecode": "0x60806040526040518060a0016040528060638152602001620050b760639139600990805190602001906200003592919062000d9d565b506040518060a00160405280607081526020016200504760709139600a90805190602001906200006792919062000d9d565b506040518060600160405280602281526020016200521f60229139600b90805190602001906200009992919062000d9d565b50604051806060016040528060298152602001620051f660299139600c9080519060200190620000cb92919062000d9d565b5060405180610100016040528060dc81526020016200511a60dc9139600d9080519060200190620000fe92919062000d9d565b506040518061014001604052806040518060400160405280600681526020017f53696c656e74000000000000000000000000000000000000000000000000000081525081526020016040518060400160405280600781526020017f4c61626f7265640000000000000000000000000000000000000000000000000081525081526020016040518060400160405280600a81526020017f417573706963696f75730000000000000000000000000000000000000000000081525081526020016040518060400160405280600781526020017f44796e616d69630000000000000000000000000000000000000000000000000081525081526020016040518060400160405280600681526020017f55736566756c000000000000000000000000000000000000000000000000000081525081526020016040518060400160405280600581526020017f53756c6b7900000000000000000000000000000000000000000000000000000081525081526020016040518060400160405280600581526020017f416e67727900000000000000000000000000000000000000000000000000000081525081526020016040518060400160405280600581526020017f486170707900000000000000000000000000000000000000000000000000000081525081526020016040518060400160405280600d81526020017f536f70686973746963617465640000000000000000000000000000000000000081525081526020016040518060400160405280600581526020017f4675727279000000000000000000000000000000000000000000000000000000815250815250600e90600a6200036992919062000e2e565b506040518061012001604052806040518060400160405280600a81526020017f5265766f6c7574696f6e0000000000000000000000000000000000000000000081525081526020016040518060400160405280600881526020017f426972746864617900000000000000000000000000000000000000000000000081525081526020016040518060400160405280600681526020017f4d656d6f7279000000000000000000000000000000000000000000000000000081525081526020016040518060400160405280600d81526020017f436f6d6d756e69636174696f6e0000000000000000000000000000000000000081525081526020016040518060400160405280600781526020017f46697368696e670000000000000000000000000000000000000000000000000081525081526020016040518060400160405280600981526020017f436f6e667573696f6e000000000000000000000000000000000000000000000081525081526020016040518060400160405280600481526020017f446972740000000000000000000000000000000000000000000000000000000081525081526020016040518060400160405280600781526020017f57656464696e670000000000000000000000000000000000000000000000000081525081526020016040518060400160405280600581526020017f447265616d000000000000000000000000000000000000000000000000000000815250815250600f9060096200059992919062000e95565b506040518061014001604052806040518060400160405280600481526020017f546f776e0000000000000000000000000000000000000000000000000000000081525081526020016040518060400160405280600981526020017f536974756174696f6e000000000000000000000000000000000000000000000081525081526020016040518060400160405280600581526020017f537573686900000000000000000000000000000000000000000000000000000081525081526020016040518060400160405280600781526020017f53747564656e740000000000000000000000000000000000000000000000000081525081526020016040518060400160405280600481526020017f426174680000000000000000000000000000000000000000000000000000000081525081526020016040518060400160405280600581526020017f53616c616400000000000000000000000000000000000000000000000000000081525081526020016040518060400160405280600681526020017f436f6f6b6965000000000000000000000000000000000000000000000000000081525081526020016040518060400160405280600681526020017f4661726d6572000000000000000000000000000000000000000000000000000081525081526020016040518060400160405280600881526020017f537472617465677900000000000000000000000000000000000000000000000081525081526020016040518060400160405280600581526020017f537465616b000000000000000000000000000000000000000000000000000000815250815250601090600a6200080492919062000e2e565b506040518061020001604052806040518060400160405280600181526020017f300000000000000000000000000000000000000000000000000000000000000081525081526020016040518060400160405280600181526020017f310000000000000000000000000000000000000000000000000000000000000081525081526020016040518060400160405280600181526020017f320000000000000000000000000000000000000000000000000000000000000081525081526020016040518060400160405280600181526020017f330000000000000000000000000000000000000000000000000000000000000081525081526020016040518060400160405280600181526020017f340000000000000000000000000000000000000000000000000000000000000081525081526020016040518060400160405280600181526020017f350000000000000000000000000000000000000000000000000000000000000081525081526020016040518060400160405280600181526020017f360000000000000000000000000000000000000000000000000000000000000081525081526020016040518060400160405280600181526020017f370000000000000000000000000000000000000000000000000000000000000081525081526020016040518060400160405280600181526020017f380000000000000000000000000000000000000000000000000000000000000081525081526020016040518060400160405280600181526020017f390000000000000000000000000000000000000000000000000000000000000081525081526020016040518060400160405280600181526020017f610000000000000000000000000000000000000000000000000000000000000081525081526020016040518060400160405280600181526020017f620000000000000000000000000000000000000000000000000000000000000081525081526020016040518060400160405280600181526020017f630000000000000000000000000000000000000000000000000000000000000081525081526020016040518060400160405280600181526020017f640000000000000000000000000000000000000000000000000000000000000081525081526020016040518060400160405280600181526020017f650000000000000000000000000000000000000000000000000000000000000081525081526020016040518060400160405280600181526020017f6600000000000000000000000000000000000000000000000000000000000000815250815250601190601062000bd192919062000efc565b5034801562000bdf57600080fd5b506040518060400160405280600981526020017f5371756172654e465400000000000000000000000000000000000000000000008152506040518060400160405280600681526020017f5351554152450000000000000000000000000000000000000000000000000000815250816000908051906020019062000c6492919062000d9d565b50806001908051906020019062000c7d92919062000d9d565b50505062000ccb6040518060400160405280601e81526020017f54686973206973206d79204e465420636f6e74726163742e20576f616821000081525062000cd160201b6200154e1760201c565b6200111d565b62000d718160405160240162000ce8919062001031565b6040516020818303038152906040527f41304fac000000000000000000000000000000000000000000000000000000007bffffffffffffffffffffffffffffffffffffffffffffffffffffffff19166020820180517bffffffffffffffffffffffffffffffffffffffffffffffffffffffff838183161783525050505062000d7460201b60201c565b50565b60008151905060006a636f6e736f6c652e6c6f679050602083016000808483855afa5050505050565b82805462000dab90620010a7565b90600052602060002090601f01602090048101928262000dcf576000855562000e1b565b82601f1062000dea57805160ff191683800117855562000e1b565b8280016001018555821562000e1b579182015b8281111562000e1a57825182559160200191906001019062000dfd565b5b50905062000e2a919062000f63565b5090565b82805482825590600052602060002090810192821562000e82579160200282015b8281111562000e8157825182908051906020019062000e7092919062000d9d565b509160200191906001019062000e4f565b5b50905062000e91919062000f82565b5090565b82805482825590600052602060002090810192821562000ee9579160200282015b8281111562000ee857825182908051906020019062000ed792919062000d9d565b509160200191906001019062000eb6565b5b50905062000ef8919062000f82565b5090565b82805482825590600052602060002090810192821562000f50579160200282015b8281111562000f4f57825182908051906020019062000f3e92919062000d9d565b509160200191906001019062000f1d565b5b50905062000f5f919062000f82565b5090565b5b8082111562000f7e57600081600090555060010162000f64565b5090565b5b8082111562000fa6576000818162000f9c919062000faa565b5060010162000f83565b5090565b50805462000fb890620010a7565b6000825580601f1062000fcc575062000fed565b601f01602090049060005260206000209081019062000fec919062000f63565b5b50565b600062000ffd8262001055565b62001009818562001060565b93506200101b81856020860162001071565b62001026816200110c565b840191505092915050565b600060208201905081810360008301526200104d818462000ff0565b905092915050565b600081519050919050565b600082825260208201905092915050565b60005b838110156200109157808201518184015260208101905062001074565b83811115620010a1576000848401525b50505050565b60006002820490506001821680620010c057607f821691505b60208210811415620010d757620010d6620010dd565b5b50919050565b7f4e487b7100000000000000000000000000000000000000000000000000000000600052602260045260246000fd5b6000601f19601f8301169050919050565b613f1a806200112d6000396000f3fe608060405234801561001057600080fd5b50600436106101165760003560e01c806395d89b41116100a2578063ba8e0b4211610071578063ba8e0b4214610303578063c575757a14610333578063c87b56dd14610363578063de9d132f14610393578063e985e9c51461039d57610116565b806395d89b411461027d578063a22cb4651461029b578063b187301f146102b7578063b88d4fde146102e757610116565b806323b872dd116100e957806323b872dd146101b55780632de38d68146101d157806342842e0e146102015780636352211e1461021d57806370a082311461024d57610116565b806301ffc9a71461011b57806306fdde031461014b578063081812fc14610169578063095ea7b314610199575b600080fd5b610135600480360381019061013091906128e2565b6103cd565b6040516101429190613760565b60405180910390f35b6101536104af565b604051610160919061377b565b60405180910390f35b610183600480360381019061017e9190612934565b610541565b60405161019091906136bb565b60405180910390f35b6101b360048036038101906101ae91906128a6565b6105c6565b005b6101cf60048036038101906101ca91906127a0565b6106de565b005b6101eb60048036038101906101e69190612934565b61073e565b6040516101f8919061377b565b60405180910390f35b61021b600480360381019061021691906127a0565b61085c565b005b61023760048036038101906102329190612934565b61087c565b60405161024491906136bb565b60405180910390f35b6102676004803603810190610262919061273b565b61092e565b60405161027491906139db565b60405180910390f35b6102856109e6565b604051610292919061377b565b60405180910390f35b6102b560048036038101906102b0919061286a565b610a78565b005b6102d160048036038101906102cc9190612934565b610bf9565b6040516102de919061377b565b60405180910390f35b61030160048036038101906102fc91906127ef565b610d17565b005b61031d6004803603810190610318919061295d565b610d79565b60405161032a919061377b565b60405180910390f35b61034d60048036038101906103489190612934565b610f90565b60405161035a919061377b565b60405180910390f35b61037d60048036038101906103789190612934565b6110ae565b60405161038a919061377b565b60405180910390f35b61039b611200565b005b6103b760048036038101906103b29190612764565b6114ba565b6040516103c49190613760565b60405180910390f35b60007f80ac58cd000000000000000000000000000000000000000000000000000000007bffffffffffffffffffffffffffffffffffffffffffffffffffffffff1916827bffffffffffffffffffffffffffffffffffffffffffffffffffffffff1916148061049857507f5b5e139f000000000000000000000000000000000000000000000000000000007bffffffffffffffffffffffffffffffffffffffffffffffffffffffff1916827bffffffffffffffffffffffffffffffffffffffffffffffffffffffff1916145b806104a857506104a7826115e7565b5b9050919050565b6060600080546104be90613caa565b80601f01602080910402602001604051908101604052809291908181526020018280546104ea90613caa565b80156105375780601f1061050c57610100808354040283529160200191610537565b820191906000526020600020905b81548152906001019060200180831161051a57829003601f168201915b5050505050905090565b600061054c82611651565b61058b576040517f08c379a00000000000000000000000000000000000000000000000000000000081526004016105829061393b565b60405180910390fd5b6004600083815260200190815260200160002060009054906101000a900473ffffffffffffffffffffffffffffffffffffffff169050919050565b60006105d18261087c565b90508073ffffffffffffffffffffffffffffffffffffffff168373ffffffffffffffffffffffffffffffffffffffff161415610642576040517f08c379a00000000000000000000000000000000000000000000000000000000081526004016106399061399b565b60405180910390fd5b8073ffffffffffffffffffffffffffffffffffffffff166106616116bd565b73ffffffffffffffffffffffffffffffffffffffff161480610690575061068f8161068a6116bd565b6114ba565b5b6106cf576040517f08c379a00000000000000000000000000000000000000000000000000000000081526004016106c69061387b565b60405180910390fd5b6106d983836116c5565b505050565b6106ef6106e96116bd565b8261177e565b61072e576040517f08c379a0000000000000000000000000000000000000000000000000000000008152600401610725906139bb565b60405180910390fd5b61073983838361185c565b505050565b6060600061077261074e84611ab8565b60405160200161075e9190613677565b604051602081830303815290604052611c65565b9050600e80549050816107859190613d25565b9050600e81815481106107c1577f4e487b7100000000000000000000000000000000000000000000000000000000600052603260045260246000fd5b9060005260206000200180546107d690613caa565b80601f016020809104026020016040519081016040528092919081815260200182805461080290613caa565b801561084f5780601f106108245761010080835404028352916020019161084f565b820191906000526020600020905b81548152906001019060200180831161083257829003601f168201915b5050505050915050919050565b61087783838360405180602001604052806000815250610d17565b505050565b6000806002600084815260200190815260200160002060009054906101000a900473ffffffffffffffffffffffffffffffffffffffff169050600073ffffffffffffffffffffffffffffffffffffffff168173ffffffffffffffffffffffffffffffffffffffff161415610925576040517f08c379a000000000000000000000000000000000000000000000000000000000815260040161091c906138bb565b60405180910390fd5b80915050919050565b60008073ffffffffffffffffffffffffffffffffffffffff168273ffffffffffffffffffffffffffffffffffffffff16141561099f576040517f08c379a00000000000000000000000000000000000000000000000000000000081526004016109969061389b565b60405180910390fd5b600360008373ffffffffffffffffffffffffffffffffffffffff1673ffffffffffffffffffffffffffffffffffffffff168152602001908152602001600020549050919050565b6060600180546109f590613caa565b80601f0160208091040260200160405190810160405280929190818152602001828054610a2190613caa565b8015610a6e5780601f10610a4357610100808354040283529160200191610a6e565b820191906000526020600020905b815481529060010190602001808311610a5157829003601f168201915b5050505050905090565b610a806116bd565b73ffffffffffffffffffffffffffffffffffffffff168273ffffffffffffffffffffffffffffffffffffffff161415610aee576040517f08c379a0000000000000000000000000000000000000000000000000000000008152600401610ae59061383b565b60405180910390fd5b8060056000610afb6116bd565b73ffffffffffffffffffffffffffffffffffffffff1673ffffffffffffffffffffffffffffffffffffffff16815260200190815260200160002060008473ffffffffffffffffffffffffffffffffffffffff1673ffffffffffffffffffffffffffffffffffffffff16815260200190815260200160002060006101000a81548160ff0219169083151502179055508173ffffffffffffffffffffffffffffffffffffffff16610ba86116bd565b73ffffffffffffffffffffffffffffffffffffffff167f17307eab39ab6107e8899845ad3d59bd9653f200f220920489ca2b5937696c3183604051610bed9190613760565b60405180910390a35050565b60606000610c2d610c0984611ab8565b604051602001610c1991906135d4565b604051602081830303815290604052611c65565b9050600f8054905081610c409190613d25565b9050600f8181548110610c7c577f4e487b7100000000000000000000000000000000000000000000000000000000600052603260045260246000fd5b906000526020600020018054610c9190613caa565b80601f0160208091040260200160405190810160405280929190818152602001828054610cbd90613caa565b8015610d0a5780601f10610cdf57610100808354040283529160200191610d0a565b820191906000526020600020905b815481529060010190602001808311610ced57829003601f168201915b5050505050915050919050565b610d28610d226116bd565b8361177e565b610d67576040517f08c379a0000000000000000000000000000000000000000000000000000000008152600401610d5e906139bb565b60405180910390fd5b610d7384848484611c98565b50505050565b60606000610dbb83610d8c600854611ab8565b610d9587611ab8565b604051602001610da793929190613598565b604051602081830303815290604052611c65565b9050600060118054905082610dd09190613d25565b9050610ddb81611cf4565b610e1984610dea600854611ab8565b610df388611ab8565b604051602001610e059392919061353a565b604051602081830303815290604052611c65565b9150600060118054905083610e2e9190613d25565b9050610e3981611cf4565b610e7785610e48600854611ab8565b610e5189611ab8565b604051602001610e63939291906135f6565b604051602081830303815290604052611c65565b9250600060118054905084610e8c9190613d25565b9050610e9781611cf4565b60118381548110610ed1577f4e487b7100000000000000000000000000000000000000000000000000000000600052603260045260246000fd5b9060005260206000200160118381548110610f15577f4e487b7100000000000000000000000000000000000000000000000000000000600052603260045260246000fd5b9060005260206000200160118381548110610f59577f4e487b7100000000000000000000000000000000000000000000000000000000600052603260045260246000fd5b90600052602060002001604051602001610f7593929190613509565b60405160208183030381529060405294505050505092915050565b60606000610fc4610fa084611ab8565b604051602001610fb09190613576565b604051602081830303815290604052611c65565b905060108054905081610fd79190613d25565b905060108181548110611013577f4e487b7100000000000000000000000000000000000000000000000000000000600052603260045260246000fd5b90600052602060002001805461102890613caa565b80601f016020809104026020016040519081016040528092919081815260200182805461105490613caa565b80156110a15780601f10611076576101008083540402835291602001916110a1565b820191906000526020600020905b81548152906001019060200180831161108457829003601f168201915b5050505050915050919050565b60606110b982611651565b6110f8576040517f08c379a00000000000000000000000000000000000000000000000000000000081526004016110ef9061391b565b60405180910390fd5b600060066000848152602001908152602001600020805461111890613caa565b80601f016020809104026020016040519081016040528092919081815260200182805461114490613caa565b80156111915780601f1061116657610100808354040283529160200191611191565b820191906000526020600020905b81548152906001019060200180831161117457829003601f168201915b5050505050905060006111a2611d8d565b90506000815114156111b85781925050506111fb565b6000825111156111ed5780826040516020016111d5929190613437565b604051602081830303815290604052925050506111fb565b6111f684611da4565b925050505b919050565b600061120c6007611e4b565b90506000606460085442446112219190613adf565b61122b9190613adf565b6112359190613d25565b90508060088190555060006112498361073e565b9050600061125684610bf9565b9050600061126385610f90565b905060006112a6866040518060400160405280600581526020017f6669727374000000000000000000000000000000000000000000000000000000815250610d79565b905060006112e9876040518060400160405280600681526020017f7365636f6e640000000000000000000000000000000000000000000000000000815250610d79565b905060008585856040516020016113029392919061345b565b604051602081830303815290604052905060006009600a85600b86600c600d8860405160200161133998979695949392919061348c565b6040516020818303038152906040529050600061137e8361135984611e59565b60405160200161136a929190613632565b604051602081830303815290604052611e59565b90506000816040516020016113939190613699565b60405160208183030381529060405290506113e26040518060400160405280601581526020017f0a2d2d2d2d2d2d2d2d2d2d2d2d2d2d2d2d2d2d2d2d000000000000000000000081525061154e565b6113eb8161154e565b6114296040518060400160405280601581526020017f2d2d2d2d2d2d2d2d2d2d2d2d2d2d2d2d2d2d2d2d0a000000000000000000000081525061154e565b611433338c612017565b61143d8b82612035565b61144760076120a9565b61146a604051806060016040528060258152602001613e80602591398c336120bf565b7f4d3a24d1178b5e84c3f01818172d8951082caa1dad646fead020c45a049544ef338c61149686611e59565b6040516114a593929190613722565b60405180910390a15050505050505050505050565b6000600560008473ffffffffffffffffffffffffffffffffffffffff1673ffffffffffffffffffffffffffffffffffffffff16815260200190815260200160002060008373ffffffffffffffffffffffffffffffffffffffff1673ffffffffffffffffffffffffffffffffffffffff16815260200190815260200160002060009054906101000a900460ff16905092915050565b6115e481604051602401611562919061377b565b6040516020818303038152906040527f41304fac000000000000000000000000000000000000000000000000000000007bffffffffffffffffffffffffffffffffffffffffffffffffffffffff19166020820180517bffffffffffffffffffffffffffffffffffffffffffffffffffffffff838183161783525050505061215e565b50565b60007f01ffc9a7000000000000000000000000000000000000000000000000000000007bffffffffffffffffffffffffffffffffffffffffffffffffffffffff1916827bffffffffffffffffffffffffffffffffffffffffffffffffffffffff1916149050919050565b60008073ffffffffffffffffffffffffffffffffffffffff166002600084815260200190815260200160002060009054906101000a900473ffffffffffffffffffffffffffffffffffffffff1673ffffffffffffffffffffffffffffffffffffffff1614159050919050565b600033905090565b816004600083815260200190815260200160002060006101000a81548173ffffffffffffffffffffffffffffffffffffffff021916908373ffffffffffffffffffffffffffffffffffffffff160217905550808273ffffffffffffffffffffffffffffffffffffffff166117388361087c565b73ffffffffffffffffffffffffffffffffffffffff167f8c5be1e5ebec7d5bd14f71427d1e84f3dd0314c0f7b2291e5b200ac8c7c3b92560405160405180910390a45050565b600061178982611651565b6117c8576040517f08c379a00000000000000000000000000000000000000000000000000000000081526004016117bf9061385b565b60405180910390fd5b60006117d38361087c565b90508073ffffffffffffffffffffffffffffffffffffffff168473ffffffffffffffffffffffffffffffffffffffff16148061184257508373ffffffffffffffffffffffffffffffffffffffff1661182a84610541565b73ffffffffffffffffffffffffffffffffffffffff16145b80611853575061185281856114ba565b5b91505092915050565b8273ffffffffffffffffffffffffffffffffffffffff1661187c8261087c565b73ffffffffffffffffffffffffffffffffffffffff16146118d2576040517f08c379a00000000000000000000000000000000000000000000000000000000081526004016118c99061395b565b60405180910390fd5b600073ffffffffffffffffffffffffffffffffffffffff168273ffffffffffffffffffffffffffffffffffffffff161415611942576040517f08c379a00000000000000000000000000000000000000000000000000000000081526004016119399061381b565b60405180910390fd5b61194d838383612187565b6119586000826116c5565b6001600360008573ffffffffffffffffffffffffffffffffffffffff1673ffffffffffffffffffffffffffffffffffffffff16815260200190815260200160002060008282546119a89190613bc0565b925050819055506001600360008473ffffffffffffffffffffffffffffffffffffffff1673ffffffffffffffffffffffffffffffffffffffff16815260200190815260200160002060008282546119ff9190613adf565b92505081905550816002600083815260200190815260200160002060006101000a81548173ffffffffffffffffffffffffffffffffffffffff021916908373ffffffffffffffffffffffffffffffffffffffff160217905550808273ffffffffffffffffffffffffffffffffffffffff168473ffffffffffffffffffffffffffffffffffffffff167fddf252ad1be2c89b69c2b068fc378daa952ba7f163c4a11628f55a4df523b3ef60405160405180910390a4505050565b60606000821415611b00576040518060400160405280600181526020017f30000000000000000000000000000000000000000000000000000000000000008152509050611c60565b600082905060005b60008214611b32578080611b1b90613cdc565b915050600a82611b2b9190613b35565b9150611b08565b60008167ffffffffffffffff811115611b74577f4e487b7100000000000000000000000000000000000000000000000000000000600052604160045260246000fd5b6040519080825280601f01601f191660200182016040528015611ba65781602001600182028036833780820191505090505b5090505b60008514611c5957600182611bbf9190613bc0565b9150600a85611bce9190613d25565b6030611bda9190613adf565b60f81b818381518110611c16577f4e487b7100000000000000000000000000000000000000000000000000000000600052603260045260246000fd5b60200101907effffffffffffffffffffffffffffffffffffffffffffffffffffffffffffff1916908160001a905350600a85611c529190613b35565b9450611baa565b8093505050505b919050565b600081604051602001611c789190613420565b6040516020818303038152906040528051906020012060001c9050919050565b611ca384848461185c565b611caf8484848461218c565b611cee576040517f08c379a0000000000000000000000000000000000000000000000000000000008152600401611ce5906137db565b60405180910390fd5b50505050565b611d8a81604051602401611d0891906139db565b6040516020818303038152906040527ff5b1bba9000000000000000000000000000000000000000000000000000000007bffffffffffffffffffffffffffffffffffffffffffffffffffffffff19166020820180517bffffffffffffffffffffffffffffffffffffffffffffffffffffffff838183161783525050505061215e565b50565b606060405180602001604052806000815250905090565b6060611daf82611651565b611dee576040517f08c379a0000000000000000000000000000000000000000000000000000000008152600401611de59061397b565b60405180910390fd5b6000611df8611d8d565b90506000815111611e185760405180602001604052806000815250611e43565b80611e2284611ab8565b604051602001611e33929190613437565b6040516020818303038152906040525b915050919050565b600081600001549050919050565b60606000825190506000811415611e825760405180602001604052806000815250915050612012565b60006003600283611e939190613adf565b611e9d9190613b35565b6004611ea99190613b66565b90506000602082611eba9190613adf565b67ffffffffffffffff811115611ef9577f4e487b7100000000000000000000000000000000000000000000000000000000600052604160045260246000fd5b6040519080825280601f01601f191660200182016040528015611f2b5781602001600182028036833780820191505090505b5090506000604051806060016040528060408152602001613ea5604091399050600181016020830160005b86811015611fcf5760038101905062ffffff818a015116603f8160121c168401518060081b905060ff603f83600c1c1686015116810190508060081b905060ff603f8360061c1686015116810190508060081b905060ff603f831686015116810190508060e01b90508084526004840193505050611f56565b506003860660018114611fe95760028114611ff957612004565b613d3d60f01b6002830352612004565b603d60f81b60018303525b508484525050819450505050505b919050565b612031828260405180602001604052806000815250612323565b5050565b61203e82611651565b61207d576040517f08c379a0000000000000000000000000000000000000000000000000000000008152600401612074906138db565b60405180910390fd5b806006600084815260200190815260200160002090805190602001906120a492919061255f565b505050565b6001816000016000828254019250508190555050565b6121598383836040516024016120d79392919061379d565b6040516020818303038152906040527fe3849f79000000000000000000000000000000000000000000000000000000007bffffffffffffffffffffffffffffffffffffffffffffffffffffffff19166020820180517bffffffffffffffffffffffffffffffffffffffffffffffffffffffff838183161783525050505061215e565b505050565b60008151905060006a636f6e736f6c652e6c6f679050602083016000808483855afa5050505050565b505050565b60006121ad8473ffffffffffffffffffffffffffffffffffffffff1661237e565b15612316578373ffffffffffffffffffffffffffffffffffffffff1663150b7a026121d66116bd565b8786866040518563ffffffff1660e01b81526004016121f894939291906136d6565b602060405180830381600087803b15801561221257600080fd5b505af192505050801561224357506040513d601f19601f82011682018060405250810190612240919061290b565b60015b6122c6573d8060008114612273576040519150601f19603f3d011682016040523d82523d6000602084013e612278565b606091505b506000815114156122be576040517f08c379a00000000000000000000000000000000000000000000000000000000081526004016122b5906137db565b60405180910390fd5b805181602001fd5b63150b7a0260e01b7bffffffffffffffffffffffffffffffffffffffffffffffffffffffff1916817bffffffffffffffffffffffffffffffffffffffffffffffffffffffff19161491505061231b565b600190505b949350505050565b61232d8383612391565b61233a600084848461218c565b612379576040517f08c379a0000000000000000000000000000000000000000000000000000000008152600401612370906137db565b60405180910390fd5b505050565b600080823b905060008111915050919050565b600073ffffffffffffffffffffffffffffffffffffffff168273ffffffffffffffffffffffffffffffffffffffff161415612401576040517f08c379a00000000000000000000000000000000000000000000000000000000081526004016123f8906138fb565b60405180910390fd5b61240a81611651565b1561244a576040517f08c379a0000000000000000000000000000000000000000000000000000000008152600401612441906137fb565b60405180910390fd5b61245660008383612187565b6001600360008473ffffffffffffffffffffffffffffffffffffffff1673ffffffffffffffffffffffffffffffffffffffff16815260200190815260200160002060008282546124a69190613adf565b92505081905550816002600083815260200190815260200160002060006101000a81548173ffffffffffffffffffffffffffffffffffffffff021916908373ffffffffffffffffffffffffffffffffffffffff160217905550808273ffffffffffffffffffffffffffffffffffffffff16600073ffffffffffffffffffffffffffffffffffffffff167fddf252ad1be2c89b69c2b068fc378daa952ba7f163c4a11628f55a4df523b3ef60405160405180910390a45050565b82805461256b90613caa565b90600052602060002090601f01602090048101928261258d57600085556125d4565b82601f106125a657805160ff19168380011785556125d4565b828001600101855582156125d4579182015b828111156125d35782518255916020019190600101906125b8565b5b5090506125e191906125e5565b5090565b5b808211156125fe5760008160009055506001016125e6565b5090565b600061261561261084613a27565b6139f6565b90508281526020810184848401111561262d57600080fd5b612638848285613c68565b509392505050565b600061265361264e84613a57565b6139f6565b90508281526020810184848401111561266b57600080fd5b612676848285613c68565b509392505050565b60008135905061268d81613e23565b92915050565b6000813590506126a281613e3a565b92915050565b6000813590506126b781613e51565b92915050565b6000815190506126cc81613e51565b92915050565b600082601f8301126126e357600080fd5b81356126f3848260208601612602565b91505092915050565b600082601f83011261270d57600080fd5b813561271d848260208601612640565b91505092915050565b60008135905061273581613e68565b92915050565b60006020828403121561274d57600080fd5b600061275b8482850161267e565b91505092915050565b6000806040838503121561277757600080fd5b60006127858582860161267e565b92505060206127968582860161267e565b9150509250929050565b6000806000606084860312156127b557600080fd5b60006127c38682870161267e565b93505060206127d48682870161267e565b92505060406127e586828701612726565b9150509250925092565b6000806000806080858703121561280557600080fd5b60006128138782880161267e565b94505060206128248782880161267e565b935050604061283587828801612726565b925050606085013567ffffffffffffffff81111561285257600080fd5b61285e878288016126d2565b91505092959194509250565b6000806040838503121561287d57600080fd5b600061288b8582860161267e565b925050602061289c85828601612693565b9150509250929050565b600080604083850312156128b957600080fd5b60006128c78582860161267e565b92505060206128d885828601612726565b9150509250929050565b6000602082840312156128f457600080fd5b6000612902848285016126a8565b91505092915050565b60006020828403121561291d57600080fd5b600061292b848285016126bd565b91505092915050565b60006020828403121561294657600080fd5b600061295484828501612726565b91505092915050565b6000806040838503121561297057600080fd5b600061297e85828601612726565b925050602083013567ffffffffffffffff81111561299b57600080fd5b6129a7858286016126fc565b9150509250929050565b6129ba81613bf4565b82525050565b6129c981613c06565b82525050565b60006129da82613a9c565b6129e48185613ab2565b93506129f4818560208601613c77565b6129fd81613e12565b840191505092915050565b6000612a1382613aa7565b612a1d8185613ac3565b9350612a2d818560208601613c77565b612a3681613e12565b840191505092915050565b6000612a4c82613aa7565b612a568185613ad4565b9350612a66818560208601613c77565b80840191505092915050565b60008154612a7f81613caa565b612a898186613ad4565b94506001821660008114612aa45760018114612ab557612ae8565b60ff19831686528186019350612ae8565b612abe85613a87565b60005b83811015612ae057815481890152600182019150602081019050612ac1565b838801955050505b50505092915050565b6000612afe600583613ad4565b91507f43484152320000000000000000000000000000000000000000000000000000006000830152600582019050919050565b6000612b3e603283613ac3565b91507f4552433732313a207472616e7366657220746f206e6f6e20455243373231526560008301527f63656976657220696d706c656d656e74657200000000000000000000000000006020830152604082019050919050565b6000612ba4601c83613ac3565b91507f4552433732313a20746f6b656e20616c7265616479206d696e746564000000006000830152602082019050919050565b6000612be4600a83613ad4565b91507f54484952445f574f5244000000000000000000000000000000000000000000006000830152600a82019050919050565b6000612c24602483613ac3565b91507f4552433732313a207472616e7366657220746f20746865207a65726f2061646460008301527f72657373000000000000000000000000000000000000000000000000000000006020830152604082019050919050565b6000612c8a601983613ac3565b91507f4552433732313a20617070726f766520746f2063616c6c6572000000000000006000830152602082019050919050565b6000612cca606383613ad4565b91507f222c20226465736372697074696f6e223a20224120686967686c79206163636c60008301527f61696d656420636f6c6c656374696f6e206f6620737175617265732e222c202260208301527f696d616765223a2022646174613a696d6167652f7376672b786d6c3b6261736560408301527f36342c00000000000000000000000000000000000000000000000000000000006060830152606382019050919050565b6000612d7c600583613ad4565b91507f43484152310000000000000000000000000000000000000000000000000000006000830152600582019050919050565b6000612dbc600b83613ad4565b91507f5345434f4e445f574f52440000000000000000000000000000000000000000006000830152600b82019050919050565b6000612dfc602c83613ac3565b91507f4552433732313a206f70657261746f7220717565727920666f72206e6f6e657860008301527f697374656e7420746f6b656e00000000000000000000000000000000000000006020830152604082019050919050565b6000612e62600d83613ad4565b91507f3c2f746578743e3c2f7376673e000000000000000000000000000000000000006000830152600d82019050919050565b6000612ea2600583613ad4565b91507f43484152330000000000000000000000000000000000000000000000000000006000830152600582019050919050565b6000612ee2603883613ac3565b91507f4552433732313a20617070726f76652063616c6c6572206973206e6f74206f7760008301527f6e6572206e6f7220617070726f76656420666f7220616c6c00000000000000006020830152604082019050919050565b6000612f48602a83613ac3565b91507f4552433732313a2062616c616e636520717565727920666f7220746865207a6560008301527f726f2061646472657373000000000000000000000000000000000000000000006020830152604082019050919050565b6000612fae602983613ac3565b91507f4552433732313a206f776e657220717565727920666f72206e6f6e657869737460008301527f656e7420746f6b656e00000000000000000000000000000000000000000000006020830152604082019050919050565b6000613014602e83613ac3565b91507f45524337323155524953746f726167653a2055524920736574206f66206e6f6e60008301527f6578697374656e7420746f6b656e0000000000000000000000000000000000006020830152604082019050919050565b600061307a600283613ad4565b91507f227d0000000000000000000000000000000000000000000000000000000000006000830152600282019050919050565b60006130ba602083613ac3565b91507f4552433732313a206d696e7420746f20746865207a65726f20616464726573736000830152602082019050919050565b60006130fa603183613ac3565b91507f45524337323155524953746f726167653a2055524920717565727920666f722060008301527f6e6f6e6578697374656e7420746f6b656e0000000000000000000000000000006020830152604082019050919050565b6000613160602c83613ac3565b91507f4552433732313a20617070726f76656420717565727920666f72206e6f6e657860008301527f697374656e7420746f6b656e00000000000000000000000000000000000000006020830152604082019050919050565b60006131c6602983613ac3565b91507f4552433732313a207472616e73666572206f6620746f6b656e2074686174206960008301527f73206e6f74206f776e00000000000000000000000000000000000000000000006020830152604082019050919050565b600061322c602f83613ac3565b91507f4552433732314d657461646174613a2055524920717565727920666f72206e6f60008301527f6e6578697374656e7420746f6b656e00000000000000000000000000000000006020830152604082019050919050565b6000613292600a83613ad4565b91507f7b226e616d65223a2022000000000000000000000000000000000000000000006000830152600a82019050919050565b60006132d2602183613ac3565b91507f4552433732313a20617070726f76616c20746f2063757272656e74206f776e6560008301527f72000000000000000000000000000000000000000000000000000000000000006020830152604082019050919050565b6000613338600a83613ad4565b91507f46495253545f574f5244000000000000000000000000000000000000000000006000830152600a82019050919050565b6000613378601d83613ad4565b91507f646174613a6170706c69636174696f6e2f6a736f6e3b6261736536342c0000006000830152601d82019050919050565b60006133b8603183613ac3565b91507f4552433732313a207472616e736665722063616c6c6572206973206e6f74206f60008301527f776e6572206e6f7220617070726f7665640000000000000000000000000000006020830152604082019050919050565b61341a81613c5e565b82525050565b600061342c8284612a41565b915081905092915050565b60006134438285612a41565b915061344f8284612a41565b91508190509392505050565b60006134678286612a41565b91506134738285612a41565b915061347f8284612a41565b9150819050949350505050565b6000613498828b612a72565b91506134a4828a612a72565b91506134b08289612a41565b91506134bc8288612a72565b91506134c88287612a41565b91506134d48286612a72565b91506134e08285612a72565b91506134ec8284612a41565b91506134f782612e55565b91508190509998505050505050505050565b60006135158286612a72565b91506135218285612a72565b915061352d8284612a72565b9150819050949350505050565b600061354582612af1565b91506135518286612a41565b915061355d8285612a41565b91506135698284612a41565b9150819050949350505050565b600061358182612bd7565b915061358d8284612a41565b915081905092915050565b60006135a382612d6f565b91506135af8286612a41565b91506135bb8285612a41565b91506135c78284612a41565b9150819050949350505050565b60006135df82612daf565b91506135eb8284612a41565b915081905092915050565b600061360182612e95565b915061360d8286612a41565b91506136198285612a41565b91506136258284612a41565b9150819050949350505050565b600061363d82613285565b91506136498285612a41565b915061365482612cbd565b91506136608284612a41565b915061366b8261306d565b91508190509392505050565b60006136828261332b565b915061368e8284612a41565b915081905092915050565b60006136a48261336b565b91506136b08284612a41565b915081905092915050565b60006020820190506136d060008301846129b1565b92915050565b60006080820190506136eb60008301876129b1565b6136f860208301866129b1565b6137056040830185613411565b818103606083015261371781846129cf565b905095945050505050565b600060608201905061373760008301866129b1565b6137446020830185613411565b81810360408301526137568184612a08565b9050949350505050565b600060208201905061377560008301846129c0565b92915050565b600060208201905081810360008301526137958184612a08565b905092915050565b600060608201905081810360008301526137b78186612a08565b90506137c66020830185613411565b6137d360408301846129b1565b949350505050565b600060208201905081810360008301526137f481612b31565b9050919050565b6000602082019050818103600083015261381481612b97565b9050919050565b6000602082019050818103600083015261383481612c17565b9050919050565b6000602082019050818103600083015261385481612c7d565b9050919050565b6000602082019050818103600083015261387481612def565b9050919050565b6000602082019050818103600083015261389481612ed5565b9050919050565b600060208201905081810360008301526138b481612f3b565b9050919050565b600060208201905081810360008301526138d481612fa1565b9050919050565b600060208201905081810360008301526138f481613007565b9050919050565b60006020820190508181036000830152613914816130ad565b9050919050565b60006020820190508181036000830152613934816130ed565b9050919050565b6000602082019050818103600083015261395481613153565b9050919050565b60006020820190508181036000830152613974816131b9565b9050919050565b600060208201905081810360008301526139948161321f565b9050919050565b600060208201905081810360008301526139b4816132c5565b9050919050565b600060208201905081810360008301526139d4816133ab565b9050919050565b60006020820190506139f06000830184613411565b92915050565b6000604051905081810181811067ffffffffffffffff82111715613a1d57613a1c613de3565b5b8060405250919050565b600067ffffffffffffffff821115613a4257613a41613de3565b5b601f19601f8301169050602081019050919050565b600067ffffffffffffffff821115613a7257613a71613de3565b5b601f19601f8301169050602081019050919050565b60008190508160005260206000209050919050565b600081519050919050565b600081519050919050565b600082825260208201905092915050565b600082825260208201905092915050565b600081905092915050565b6000613aea82613c5e565b9150613af583613c5e565b9250827fffffffffffffffffffffffffffffffffffffffffffffffffffffffffffffffff03821115613b2a57613b29613d56565b5b828201905092915050565b6000613b4082613c5e565b9150613b4b83613c5e565b925082613b5b57613b5a613d85565b5b828204905092915050565b6000613b7182613c5e565b9150613b7c83613c5e565b9250817fffffffffffffffffffffffffffffffffffffffffffffffffffffffffffffffff0483118215151615613bb557613bb4613d56565b5b828202905092915050565b6000613bcb82613c5e565b9150613bd683613c5e565b925082821015613be957613be8613d56565b5b828203905092915050565b6000613bff82613c3e565b9050919050565b60008115159050919050565b60007fffffffff0000000000000000000000000000000000000000000000000000000082169050919050565b600073ffffffffffffffffffffffffffffffffffffffff82169050919050565b6000819050919050565b82818337600083830152505050565b60005b83811015613c95578082015181840152602081019050613c7a565b83811115613ca4576000848401525b50505050565b60006002820490506001821680613cc257607f821691505b60208210811415613cd657613cd5613db4565b5b50919050565b6000613ce782613c5e565b91507fffffffffffffffffffffffffffffffffffffffffffffffffffffffffffffffff821415613d1a57613d19613d56565b5b600182019050919050565b6000613d3082613c5e565b9150613d3b83613c5e565b925082613d4b57613d4a613d85565b5b828206905092915050565b7f4e487b7100000000000000000000000000000000000000000000000000000000600052601160045260246000fd5b7f4e487b7100000000000000000000000000000000000000000000000000000000600052601260045260246000fd5b7f4e487b7100000000000000000000000000000000000000000000000000000000600052602260045260246000fd5b7f4e487b7100000000000000000000000000000000000000000000000000000000600052604160045260246000fd5b6000601f19601f8301169050919050565b613e2c81613bf4565b8114613e3757600080fd5b50565b613e4381613c06565b8114613e4e57600080fd5b50565b613e5a81613c12565b8114613e6557600080fd5b50565b613e7181613c5e565b8114613e7c57600080fd5b5056fe416e204e465420772f20494420257320686173206265656e206d696e74656420746f2025734142434445464748494a4b4c4d4e4f505152535455565758595a6162636465666768696a6b6c6d6e6f707172737475767778797a303132333435363738392b2fa2646970667358221220c2014b146544947dae8c3c2169dfc04fdc7f74ec3dfad6b222596a9087f834c264736f6c634300080000333c646566733e3c6c696e6561724772616469656e742069643d2772616e646f6d6772616469656e74272078313d27353025272079313d272d322e3438393439383133652d313525272078323d27353025272079323d273130302527203e3c73746f702073746f702d636f6c6f723d27233c73766720786d6c6e733d27687474703a2f2f7777772e77332e6f72672f323030302f73766727207072657365727665417370656374526174696f3d27784d696e594d696e206d656574272076696577426f783d273020302033353020333530273e203c7374796c653e2e62617365207b2066696c6c3a2077686974653b20666f6e742d66616d696c793a2073657269663b20666f6e742d73697a653a20323470783b207d3c2f7374796c653e3c726563742077696474683d273130302527206865696768743d2731303025272066696c6c3d2775726c282372616e646f6d6772616469656e742927202f3e3c7465787420783d273530252720793d273530252720636c6173733d27626173652720646f6d696e616e742d626173656c696e653d276d6964646c652720746578742d616e63686f723d276d6964646c65273e27206f66667365743d2731303025272f3e3c2f6c696e6561724772616469656e743e3c2f646566733e27206f66667365743d273025272f3e3c73746f702073746f702d636f6c6f723d2723",
  "linkReferences": {},
  "deployedLinkReferences": {}
}