{
  "_format": "hh-sol-artifact-1",
  "contractName": "MyEpicNFT",
  "sourceName": "contracts/MyEpicNFT.sol",
  "abi": [
    {
      "inputs": [],
      "stateMutability": "nonpayable",
      "type": "constructor"
    },
    {
      "anonymous": false,
      "inputs": [
        {
          "indexed": true,
          "internalType": "address",
          "name": "owner",
          "type": "address"
        },
        {
          "indexed": true,
          "internalType": "address",
          "name": "approved",
          "type": "address"
        },
        {
          "indexed": true,
          "internalType": "uint256",
          "name": "tokenId",
          "type": "uint256"
        }
      ],
      "name": "Approval",
      "type": "event"
    },
    {
      "anonymous": false,
      "inputs": [
        {
          "indexed": true,
          "internalType": "address",
          "name": "owner",
          "type": "address"
        },
        {
          "indexed": true,
          "internalType": "address",
          "name": "operator",
          "type": "address"
        },
        {
          "indexed": false,
          "internalType": "bool",
          "name": "approved",
          "type": "bool"
        }
      ],
      "name": "ApprovalForAll",
      "type": "event"
    },
    {
      "anonymous": false,
      "inputs": [
        {
          "indexed": false,
          "internalType": "address",
          "name": "sender",
          "type": "address"
        },
        {
          "indexed": false,
          "internalType": "uint256",
          "name": "tokenId",
          "type": "uint256"
        },
        {
          "indexed": false,
          "internalType": "string",
          "name": "svg",
          "type": "string"
        }
      ],
      "name": "NewEpicNFTMinted",
      "type": "event"
    },
    {
      "anonymous": false,
      "inputs": [
        {
          "indexed": true,
          "internalType": "address",
          "name": "from",
          "type": "address"
        },
        {
          "indexed": true,
          "internalType": "address",
          "name": "to",
          "type": "address"
        },
        {
          "indexed": true,
          "internalType": "uint256",
          "name": "tokenId",
          "type": "uint256"
        }
      ],
      "name": "Transfer",
      "type": "event"
    },
    {
      "inputs": [
        {
          "internalType": "address",
          "name": "to",
          "type": "address"
        },
        {
          "internalType": "uint256",
          "name": "tokenId",
          "type": "uint256"
        }
      ],
      "name": "approve",
      "outputs": [],
      "stateMutability": "nonpayable",
      "type": "function"
    },
    {
      "inputs": [
        {
          "internalType": "address",
          "name": "owner",
          "type": "address"
        }
      ],
      "name": "balanceOf",
      "outputs": [
        {
          "internalType": "uint256",
          "name": "",
          "type": "uint256"
        }
      ],
      "stateMutability": "view",
      "type": "function"
    },
    {
      "inputs": [
        {
          "internalType": "uint256",
          "name": "tokenId",
          "type": "uint256"
        }
      ],
      "name": "getApproved",
      "outputs": [
        {
          "internalType": "address",
          "name": "",
          "type": "address"
        }
      ],
      "stateMutability": "view",
      "type": "function"
    },
    {
      "inputs": [
        {
          "internalType": "address",
          "name": "owner",
          "type": "address"
        },
        {
          "internalType": "address",
          "name": "operator",
          "type": "address"
        }
      ],
      "name": "isApprovedForAll",
      "outputs": [
        {
          "internalType": "bool",
          "name": "",
          "type": "bool"
        }
      ],
      "stateMutability": "view",
      "type": "function"
    },
    {
      "inputs": [],
      "name": "makeAnEpicNFT",
      "outputs": [],
      "stateMutability": "nonpayable",
      "type": "function"
    },
    {
      "inputs": [],
      "name": "name",
      "outputs": [
        {
          "internalType": "string",
          "name": "",
          "type": "string"
        }
      ],
      "stateMutability": "view",
      "type": "function"
    },
    {
      "inputs": [
        {
          "internalType": "uint256",
          "name": "tokenId",
          "type": "uint256"
        }
      ],
      "name": "ownerOf",
      "outputs": [
        {
          "internalType": "address",
          "name": "",
          "type": "address"
        }
      ],
      "stateMutability": "view",
      "type": "function"
    },
    {
      "inputs": [
        {
          "internalType": "uint256",
          "name": "tokenId",
          "type": "uint256"
        },
        {
          "internalType": "string",
          "name": "colorIndex",
          "type": "string"
        }
      ],
      "name": "pickRandomColor",
      "outputs": [
        {
          "internalType": "string",
          "name": "",
          "type": "string"
        }
      ],
      "stateMutability": "view",
      "type": "function"
    },
    {
      "inputs": [
        {
          "internalType": "uint256",
          "name": "tokenId",
          "type": "uint256"
        }
      ],
      "name": "pickRandomFirstWord",
      "outputs": [
        {
          "internalType": "string",
          "name": "",
          "type": "string"
        }
      ],
      "stateMutability": "view",
      "type": "function"
    },
    {
      "inputs": [
        {
          "internalType": "uint256",
          "name": "tokenId",
          "type": "uint256"
        }
      ],
      "name": "pickRandomSecondWord",
      "outputs": [
        {
          "internalType": "string",
          "name": "",
          "type": "string"
        }
      ],
      "stateMutability": "view",
      "type": "function"
    },
    {
      "inputs": [
        {
          "internalType": "uint256",
          "name": "tokenId",
          "type": "uint256"
        }
      ],
      "name": "pickRandomThirdWord",
      "outputs": [
        {
          "internalType": "string",
          "name": "",
          "type": "string"
        }
      ],
      "stateMutability": "view",
      "type": "function"
    },
    {
      "inputs": [
        {
          "internalType": "address",
          "name": "from",
          "type": "address"
        },
        {
          "internalType": "address",
          "name": "to",
          "type": "address"
        },
        {
          "internalType": "uint256",
          "name": "tokenId",
          "type": "uint256"
        }
      ],
      "name": "safeTransferFrom",
      "outputs": [],
      "stateMutability": "nonpayable",
      "type": "function"
    },
    {
      "inputs": [
        {
          "internalType": "address",
          "name": "from",
          "type": "address"
        },
        {
          "internalType": "address",
          "name": "to",
          "type": "address"
        },
        {
          "internalType": "uint256",
          "name": "tokenId",
          "type": "uint256"
        },
        {
          "internalType": "bytes",
          "name": "_data",
          "type": "bytes"
        }
      ],
      "name": "safeTransferFrom",
      "outputs": [],
      "stateMutability": "nonpayable",
      "type": "function"
    },
    {
      "inputs": [
        {
          "internalType": "address",
          "name": "operator",
          "type": "address"
        },
        {
          "internalType": "bool",
          "name": "approved",
          "type": "bool"
        }
      ],
      "name": "setApprovalForAll",
      "outputs": [],
      "stateMutability": "nonpayable",
      "type": "function"
    },
    {
      "inputs": [
        {
          "internalType": "bytes4",
          "name": "interfaceId",
          "type": "bytes4"
        }
      ],
      "name": "supportsInterface",
      "outputs": [
        {
          "internalType": "bool",
          "name": "",
          "type": "bool"
        }
      ],
      "stateMutability": "view",
      "type": "function"
    },
    {
      "inputs": [],
      "name": "symbol",
      "outputs": [
        {
          "internalType": "string",
          "name": "",
          "type": "string"
        }
      ],
      "stateMutability": "view",
      "type": "function"
    },
    {
      "inputs": [
        {
          "internalType": "uint256",
          "name": "tokenId",
          "type": "uint256"
        }
      ],
      "name": "tokenURI",
      "outputs": [
        {
          "internalType": "string",
          "name": "",
          "type": "string"
        }
      ],
      "stateMutability": "view",
      "type": "function"
    },
    {
      "inputs": [
        {
          "internalType": "address",
          "name": "from",
          "type": "address"
        },
        {
          "internalType": "address",
          "name": "to",
          "type": "address"
        },
        {
          "internalType": "uint256",
          "name": "tokenId",
          "type": "uint256"
        }
      ],
      "name": "transferFrom",
      "outputs": [],
      "stateMutability": "nonpayable",
      "type": "function"
    }
  ],
  "bytecode": "0x60806040526040518060a0016040528060638152602001620058cd606391396009908051906020019062000035929190620011fe565b506040518060a00160405280607081526020016200585d60709139600a908051906020019062000067929190620011fe565b5060405180606001604052806022815260200162005a3560229139600b908051906020019062000099929190620011fe565b5060405180606001604052806029815260200162005a0c60299139600c9080519060200190620000cb929190620011fe565b5060405180610100016040528060dc81526020016200593060dc9139600d9080519060200190620000fe929190620011fe565b506040518061036001604052806040518060400160405280600581526020017f506579726100000000000000000000000000000000000000000000000000000081525081526020016040518060400160405280600581526020017f58616e646100000000000000000000000000000000000000000000000000000081525081526020016040518060400160405280600481526020017f416c61640000000000000000000000000000000000000000000000000000000081525081526020016040518060400160405280600481526020017f426576610000000000000000000000000000000000000000000000000000000081525081526020016040518060400160405280600681526020017f48696e746572000000000000000000000000000000000000000000000000000081525081526020016040518060400160405280600581526020017f4a616e6e6100000000000000000000000000000000000000000000000000000081525081526020016040518060400160405280600581526020017f4c6c61746800000000000000000000000000000000000000000000000000000081525081526020016040518060400160405280600681526020017f456c6f726961000000000000000000000000000000000000000000000000000081525081526020016040518060400160405280600681526020017f496c6b617269000000000000000000000000000000000000000000000000000081525081526020016040518060400160405280600681526020017f4b6179617261000000000000000000000000000000000000000000000000000081525081526020016040518060400160405280600781526020017f4272797468616e0000000000000000000000000000000000000000000000000081525081526020016040518060400160405280600681526020017f48616477796e000000000000000000000000000000000000000000000000000081525081526020016040518060400160405280600781526020017f50686f636c65730000000000000000000000000000000000000000000000000081525081526020016040518060400160405280600681526020017f436f6777796e000000000000000000000000000000000000000000000000000081525081526020016040518060400160405280600681526020017f456c69647973000000000000000000000000000000000000000000000000000081525081526020016040518060400160405280600481526020017f476569610000000000000000000000000000000000000000000000000000000081525081526020016040518060400160405280600981526020017f416e6e696c69657365000000000000000000000000000000000000000000000081525081526020016040518060400160405280600481526020017f4b6569610000000000000000000000000000000000000000000000000000000081525081526020016040518060400160405280600681526020017f5175656c6c61000000000000000000000000000000000000000000000000000081525081526020016040518060400160405280600681526020017f4b6f6e646f72000000000000000000000000000000000000000000000000000081525081526020016040518060400160405280600981526020017f416d61726174686172000000000000000000000000000000000000000000000081525081526020016040518060400160405280600581526020017f4e696e647200000000000000000000000000000000000000000000000000000081525081526020016040518060400160405280600781526020017f446165616c6c610000000000000000000000000000000000000000000000000081525081526020016040518060400160405280600681526020017f5661656c6c61000000000000000000000000000000000000000000000000000081525081526020016040518060400160405280600581526020017f4b796c696100000000000000000000000000000000000000000000000000000081525081526020016040518060400160405280600981526020017f456c61646974686173000000000000000000000000000000000000000000000081525081526020016040518060400160405280600681526020017f46697266656c0000000000000000000000000000000000000000000000000000815250815250600e90601b620007549291906200128f565b506040518061012001604052806040518060400160405280600381526020017f456c66000000000000000000000000000000000000000000000000000000000081525081526020016040518060400160405280600881526020017f48616c6620656c6600000000000000000000000000000000000000000000000081525081526020016040518060400160405280600581526020017f476e6f6d6500000000000000000000000000000000000000000000000000000081525081526020016040518060400160405280600881526020017f546965666c696e6700000000000000000000000000000000000000000000000081525081526020016040518060400160405280600881526020017f48616c666c696e6700000000000000000000000000000000000000000000000081525081526020016040518060400160405280600a81526020017f447261676f6e626f726e0000000000000000000000000000000000000000000081525081526020016040518060400160405280600881526020017f48616c662d4f726300000000000000000000000000000000000000000000000081525081526020016040518060400160405280600581526020017f48756d616e00000000000000000000000000000000000000000000000000000081525081526020016040518060400160405280600581526020017f4477617266000000000000000000000000000000000000000000000000000000815250815250600f90600962000984929190620012f6565b506040518061018001604052806040518060400160405280600981526020017f42617262617269616e000000000000000000000000000000000000000000000081525081526020016040518060400160405280600481526020017f426172640000000000000000000000000000000000000000000000000000000081525081526020016040518060400160405280600681526020017f436c65726963000000000000000000000000000000000000000000000000000081525081526020016040518060400160405280600581526020017f447275696400000000000000000000000000000000000000000000000000000081525081526020016040518060400160405280600681526020017f466967686572000000000000000000000000000000000000000000000000000081525081526020016040518060400160405280600481526020017f4d6f6e6b0000000000000000000000000000000000000000000000000000000081525081526020016040518060400160405280600781526020017f50616c6164696e0000000000000000000000000000000000000000000000000081525081526020016040518060400160405280600681526020017f52616e676572000000000000000000000000000000000000000000000000000081525081526020016040518060400160405280600581526020017f526f67756500000000000000000000000000000000000000000000000000000081525081526020016040518060400160405280600881526020017f536f72636572657200000000000000000000000000000000000000000000000081525081526020016040518060400160405280600781526020017f5761726c6f636b0000000000000000000000000000000000000000000000000081525081526020016040518060400160405280600681526020017f57697a6172640000000000000000000000000000000000000000000000000000815250815250601090600c62000c659291906200135d565b506040518061020001604052806040518060400160405280600181526020017f300000000000000000000000000000000000000000000000000000000000000081525081526020016040518060400160405280600181526020017f310000000000000000000000000000000000000000000000000000000000000081525081526020016040518060400160405280600181526020017f320000000000000000000000000000000000000000000000000000000000000081525081526020016040518060400160405280600181526020017f330000000000000000000000000000000000000000000000000000000000000081525081526020016040518060400160405280600181526020017f340000000000000000000000000000000000000000000000000000000000000081525081526020016040518060400160405280600181526020017f350000000000000000000000000000000000000000000000000000000000000081525081526020016040518060400160405280600181526020017f360000000000000000000000000000000000000000000000000000000000000081525081526020016040518060400160405280600181526020017f370000000000000000000000000000000000000000000000000000000000000081525081526020016040518060400160405280600181526020017f380000000000000000000000000000000000000000000000000000000000000081525081526020016040518060400160405280600181526020017f390000000000000000000000000000000000000000000000000000000000000081525081526020016040518060400160405280600181526020017f610000000000000000000000000000000000000000000000000000000000000081525081526020016040518060400160405280600181526020017f620000000000000000000000000000000000000000000000000000000000000081525081526020016040518060400160405280600181526020017f630000000000000000000000000000000000000000000000000000000000000081525081526020016040518060400160405280600181526020017f640000000000000000000000000000000000000000000000000000000000000081525081526020016040518060400160405280600181526020017f650000000000000000000000000000000000000000000000000000000000000081525081526020016040518060400160405280600181526020017f6600000000000000000000000000000000000000000000000000000000000000815250815250601190601062001032929190620013c4565b503480156200104057600080fd5b506040518060400160405280600981526020017f5371756172654e465400000000000000000000000000000000000000000000008152506040518060400160405280600681526020017f53515541524500000000000000000000000000000000000000000000000000008152508160009080519060200190620010c5929190620011fe565b508060019080519060200190620010de929190620011fe565b5050506200112c6040518060400160405280601e81526020017f54686973206973206d79204e465420636f6e74726163742e20576f61682100008152506200113260201b620017041760201c565b620015e5565b620011d281604051602401620011499190620014f9565b6040516020818303038152906040527f41304fac000000000000000000000000000000000000000000000000000000007bffffffffffffffffffffffffffffffffffffffffffffffffffffffff19166020820180517bffffffffffffffffffffffffffffffffffffffffffffffffffffffff8381831617835250505050620011d560201b60201c565b50565b60008151905060006a636f6e736f6c652e6c6f679050602083016000808483855afa5050505050565b8280546200120c906200156f565b90600052602060002090601f0160209004810192826200123057600085556200127c565b82601f106200124b57805160ff19168380011785556200127c565b828001600101855582156200127c579182015b828111156200127b5782518255916020019190600101906200125e565b5b5090506200128b91906200142b565b5090565b828054828255906000526020600020908101928215620012e3579160200282015b82811115620012e2578251829080519060200190620012d1929190620011fe565b5091602001919060010190620012b0565b5b509050620012f291906200144a565b5090565b8280548282559060005260206000209081019282156200134a579160200282015b828111156200134957825182908051906020019062001338929190620011fe565b509160200191906001019062001317565b5b5090506200135991906200144a565b5090565b828054828255906000526020600020908101928215620013b1579160200282015b82811115620013b05782518290805190602001906200139f929190620011fe565b50916020019190600101906200137e565b5b509050620013c091906200144a565b5090565b82805482825590600052602060002090810192821562001418579160200282015b828111156200141757825182908051906020019062001406929190620011fe565b5091602001919060010190620013e5565b5b5090506200142791906200144a565b5090565b5b80821115620014465760008160009055506001016200142c565b5090565b5b808211156200146e576000818162001464919062001472565b506001016200144b565b5090565b50805462001480906200156f565b6000825580601f10620014945750620014b5565b601f016020900490600052602060002090810190620014b491906200142b565b5b50565b6000620014c5826200151d565b620014d1818562001528565b9350620014e381856020860162001539565b620014ee81620015d4565b840191505092915050565b60006020820190508181036000830152620015158184620014b8565b905092915050565b600081519050919050565b600082825260208201905092915050565b60005b83811015620015595780820151818401526020810190506200153c565b8381111562001569576000848401525b50505050565b600060028204905060018216806200158857607f821691505b602082108114156200159f576200159e620015a5565b5b50919050565b7f4e487b7100000000000000000000000000000000000000000000000000000000600052602260045260246000fd5b6000601f19601f8301169050919050565b61426880620015f56000396000f3fe608060405234801561001057600080fd5b50600436106101165760003560e01c806395d89b41116100a2578063ba8e0b4211610071578063ba8e0b4214610303578063c575757a14610333578063c87b56dd14610363578063de9d132f14610393578063e985e9c51461039d57610116565b806395d89b411461027d578063a22cb4651461029b578063b187301f146102b7578063b88d4fde146102e757610116565b806323b872dd116100e957806323b872dd146101b55780632de38d68146101d157806342842e0e146102015780636352211e1461021d57806370a082311461024d57610116565b806301ffc9a71461011b57806306fdde031461014b578063081812fc14610169578063095ea7b314610199575b600080fd5b610135600480360381019061013091906129ff565b6103cd565b6040516101429190613aae565b60405180910390f35b6101536104af565b6040516101609190613ac9565b60405180910390f35b610183600480360381019061017e9190612a51565b610541565b6040516101909190613a09565b60405180910390f35b6101b360048036038101906101ae91906129c3565b6105c6565b005b6101cf60048036038101906101ca91906128bd565b6106de565b005b6101eb60048036038101906101e69190612a51565b61073e565b6040516101f89190613ac9565b60405180910390f35b61021b600480360381019061021691906128bd565b61085c565b005b61023760048036038101906102329190612a51565b61087c565b6040516102449190613a09565b60405180910390f35b61026760048036038101906102629190612858565b61092e565b6040516102749190613d29565b60405180910390f35b6102856109e6565b6040516102929190613ac9565b60405180910390f35b6102b560048036038101906102b09190612987565b610a78565b005b6102d160048036038101906102cc9190612a51565b610bf9565b6040516102de9190613ac9565b60405180910390f35b61030160048036038101906102fc919061290c565b610d17565b005b61031d60048036038101906103189190612a7a565b610d79565b60405161032a9190613ac9565b60405180910390f35b61034d60048036038101906103489190612a51565b611146565b60405161035a9190613ac9565b60405180910390f35b61037d60048036038101906103789190612a51565b611264565b60405161038a9190613ac9565b60405180910390f35b61039b6113b6565b005b6103b760048036038101906103b29190612881565b611670565b6040516103c49190613aae565b60405180910390f35b60007f80ac58cd000000000000000000000000000000000000000000000000000000007bffffffffffffffffffffffffffffffffffffffffffffffffffffffff1916827bffffffffffffffffffffffffffffffffffffffffffffffffffffffff1916148061049857507f5b5e139f000000000000000000000000000000000000000000000000000000007bffffffffffffffffffffffffffffffffffffffffffffffffffffffff1916827bffffffffffffffffffffffffffffffffffffffffffffffffffffffff1916145b806104a857506104a78261179d565b5b9050919050565b6060600080546104be90613ff8565b80601f01602080910402602001604051908101604052809291908181526020018280546104ea90613ff8565b80156105375780601f1061050c57610100808354040283529160200191610537565b820191906000526020600020905b81548152906001019060200180831161051a57829003601f168201915b5050505050905090565b600061054c82611807565b61058b576040517f08c379a000000000000000000000000000000000000000000000000000000000815260040161058290613c89565b60405180910390fd5b6004600083815260200190815260200160002060009054906101000a900473ffffffffffffffffffffffffffffffffffffffff169050919050565b60006105d18261087c565b90508073ffffffffffffffffffffffffffffffffffffffff168373ffffffffffffffffffffffffffffffffffffffff161415610642576040517f08c379a000000000000000000000000000000000000000000000000000000000815260040161063990613ce9565b60405180910390fd5b8073ffffffffffffffffffffffffffffffffffffffff16610661611873565b73ffffffffffffffffffffffffffffffffffffffff161480610690575061068f8161068a611873565b611670565b5b6106cf576040517f08c379a00000000000000000000000000000000000000000000000000000000081526004016106c690613bc9565b60405180910390fd5b6106d9838361187b565b505050565b6106ef6106e9611873565b82611934565b61072e576040517f08c379a000000000000000000000000000000000000000000000000000000000815260040161072590613d09565b60405180910390fd5b610739838383611a12565b505050565b6060600061077261074e84611c6e565b60405160200161075e91906139c5565b604051602081830303815290604052611e1b565b9050600e80549050816107859190614073565b9050600e81815481106107c1577f4e487b7100000000000000000000000000000000000000000000000000000000600052603260045260246000fd5b9060005260206000200180546107d690613ff8565b80601f016020809104026020016040519081016040528092919081815260200182805461080290613ff8565b801561084f5780601f106108245761010080835404028352916020019161084f565b820191906000526020600020905b81548152906001019060200180831161083257829003601f168201915b5050505050915050919050565b61087783838360405180602001604052806000815250610d17565b505050565b6000806002600084815260200190815260200160002060009054906101000a900473ffffffffffffffffffffffffffffffffffffffff169050600073ffffffffffffffffffffffffffffffffffffffff168173ffffffffffffffffffffffffffffffffffffffff161415610925576040517f08c379a000000000000000000000000000000000000000000000000000000000815260040161091c90613c09565b60405180910390fd5b80915050919050565b60008073ffffffffffffffffffffffffffffffffffffffff168273ffffffffffffffffffffffffffffffffffffffff16141561099f576040517f08c379a000000000000000000000000000000000000000000000000000000000815260040161099690613be9565b60405180910390fd5b600360008373ffffffffffffffffffffffffffffffffffffffff1673ffffffffffffffffffffffffffffffffffffffff168152602001908152602001600020549050919050565b6060600180546109f590613ff8565b80601f0160208091040260200160405190810160405280929190818152602001828054610a2190613ff8565b8015610a6e5780601f10610a4357610100808354040283529160200191610a6e565b820191906000526020600020905b815481529060010190602001808311610a5157829003601f168201915b5050505050905090565b610a80611873565b73ffffffffffffffffffffffffffffffffffffffff168273ffffffffffffffffffffffffffffffffffffffff161415610aee576040517f08c379a0000000000000000000000000000000000000000000000000000000008152600401610ae590613b89565b60405180910390fd5b8060056000610afb611873565b73ffffffffffffffffffffffffffffffffffffffff1673ffffffffffffffffffffffffffffffffffffffff16815260200190815260200160002060008473ffffffffffffffffffffffffffffffffffffffff1673ffffffffffffffffffffffffffffffffffffffff16815260200190815260200160002060006101000a81548160ff0219169083151502179055508173ffffffffffffffffffffffffffffffffffffffff16610ba8611873565b73ffffffffffffffffffffffffffffffffffffffff167f17307eab39ab6107e8899845ad3d59bd9653f200f220920489ca2b5937696c3183604051610bed9190613aae565b60405180910390a35050565b60606000610c2d610c0984611c6e565b604051602001610c1991906138aa565b604051602081830303815290604052611e1b565b9050600f8054905081610c409190614073565b9050600f8181548110610c7c577f4e487b7100000000000000000000000000000000000000000000000000000000600052603260045260246000fd5b906000526020600020018054610c9190613ff8565b80601f0160208091040260200160405190810160405280929190818152602001828054610cbd90613ff8565b8015610d0a5780601f10610cdf57610100808354040283529160200191610d0a565b820191906000526020600020905b815481529060010190602001808311610ced57829003601f168201915b5050505050915050919050565b610d28610d22611873565b83611934565b610d67576040517f08c379a0000000000000000000000000000000000000000000000000000000008152600401610d5e90613d09565b60405180910390fd5b610d7384848484611e4e565b50505050565b60606000610dbb83610d8c600854611c6e565b610d9587611c6e565b604051602001610da79392919061386e565b604051602081830303815290604052611e1b565b9050600060118054905082610dd09190614073565b9050610e1084610de1600854611c6e565b610dea88611c6e565b604051602001610dfc939291906137d4565b604051602081830303815290604052611e1b565b9150600060118054905083610e259190614073565b9050610e6585610e36600854611c6e565b610e3f89611c6e565b604051602001610e5193929190613908565b604051602081830303815290604052611e1b565b9250600060118054905084610e7a9190614073565b9050610eba86610e8b600854611c6e565b610e948a611c6e565b604051602001610ea693929190613832565b604051602081830303815290604052611e1b565b9350600060118054905085610ecf9190614073565b9050610f0f87610ee0600854611c6e565b610ee98b611c6e565b604051602001610efb93929190613944565b604051602081830303815290604052611e1b565b9450600060118054905086610f249190614073565b9050610f6488610f35600854611c6e565b610f3e8c611c6e565b604051602001610f50939291906138cc565b604051602081830303815290604052611e1b565b9550600060118054905087610f799190614073565b905060118681548110610fb5577f4e487b7100000000000000000000000000000000000000000000000000000000600052603260045260246000fd5b9060005260206000200160118681548110610ff9577f4e487b7100000000000000000000000000000000000000000000000000000000600052603260045260246000fd5b906000526020600020016011868154811061103d577f4e487b7100000000000000000000000000000000000000000000000000000000600052603260045260246000fd5b9060005260206000200160118681548110611081577f4e487b7100000000000000000000000000000000000000000000000000000000600052603260045260246000fd5b90600052602060002001601186815481106110c5577f4e487b7100000000000000000000000000000000000000000000000000000000600052603260045260246000fd5b9060005260206000200160118681548110611109577f4e487b7100000000000000000000000000000000000000000000000000000000600052603260045260246000fd5b906000526020600020016040516020016111289695949392919061377c565b60405160208183030381529060405297505050505050505092915050565b6060600061117a61115684611c6e565b6040516020016111669190613810565b604051602081830303815290604052611e1b565b90506010805490508161118d9190614073565b9050601081815481106111c9577f4e487b7100000000000000000000000000000000000000000000000000000000600052603260045260246000fd5b9060005260206000200180546111de90613ff8565b80601f016020809104026020016040519081016040528092919081815260200182805461120a90613ff8565b80156112575780601f1061122c57610100808354040283529160200191611257565b820191906000526020600020905b81548152906001019060200180831161123a57829003601f168201915b5050505050915050919050565b606061126f82611807565b6112ae576040517f08c379a00000000000000000000000000000000000000000000000000000000081526004016112a590613c69565b60405180910390fd5b60006006600084815260200190815260200160002080546112ce90613ff8565b80601f01602080910402602001604051908101604052809291908181526020018280546112fa90613ff8565b80156113475780601f1061131c57610100808354040283529160200191611347565b820191906000526020600020905b81548152906001019060200180831161132a57829003601f168201915b505050505090506000611358611eaa565b905060008151141561136e5781925050506113b1565b6000825111156113a357808260405160200161138b929190613694565b604051602081830303815290604052925050506113b1565b6113ac84611ec1565b925050505b919050565b60006113c26007611f68565b90506000606460085442446113d79190613e2d565b6113e19190613e2d565b6113eb9190614073565b90508060088190555060006113ff8361073e565b9050600061140c84610bf9565b9050600061141985611146565b9050600061145c866040518060400160405280600581526020017f6669727374000000000000000000000000000000000000000000000000000000815250610d79565b9050600061149f876040518060400160405280600681526020017f7365636f6e640000000000000000000000000000000000000000000000000000815250610d79565b905060008585856040516020016114b8939291906136b8565b604051602081830303815290604052905060006009600a85600b86600c600d886040516020016114ef9897969594939291906136ff565b604051602081830303815290604052905060006115348361150f84611f76565b604051602001611520929190613980565b604051602081830303815290604052611f76565b905060008160405160200161154991906139e7565b60405160208183030381529060405290506115986040518060400160405280601581526020017f0a2d2d2d2d2d2d2d2d2d2d2d2d2d2d2d2d2d2d2d2d0000000000000000000000815250611704565b6115a181611704565b6115df6040518060400160405280601581526020017f2d2d2d2d2d2d2d2d2d2d2d2d2d2d2d2d2d2d2d2d0a0000000000000000000000815250611704565b6115e9338c612134565b6115f38b82612152565b6115fd60076121c6565b6116206040518060600160405280602581526020016141ce602591398c336121dc565b7f4d3a24d1178b5e84c3f01818172d8951082caa1dad646fead020c45a049544ef338c61164c86611f76565b60405161165b93929190613a70565b60405180910390a15050505050505050505050565b6000600560008473ffffffffffffffffffffffffffffffffffffffff1673ffffffffffffffffffffffffffffffffffffffff16815260200190815260200160002060008373ffffffffffffffffffffffffffffffffffffffff1673ffffffffffffffffffffffffffffffffffffffff16815260200190815260200160002060009054906101000a900460ff16905092915050565b61179a816040516024016117189190613ac9565b6040516020818303038152906040527f41304fac000000000000000000000000000000000000000000000000000000007bffffffffffffffffffffffffffffffffffffffffffffffffffffffff19166020820180517bffffffffffffffffffffffffffffffffffffffffffffffffffffffff838183161783525050505061227b565b50565b60007f01ffc9a7000000000000000000000000000000000000000000000000000000007bffffffffffffffffffffffffffffffffffffffffffffffffffffffff1916827bffffffffffffffffffffffffffffffffffffffffffffffffffffffff1916149050919050565b60008073ffffffffffffffffffffffffffffffffffffffff166002600084815260200190815260200160002060009054906101000a900473ffffffffffffffffffffffffffffffffffffffff1673ffffffffffffffffffffffffffffffffffffffff1614159050919050565b600033905090565b816004600083815260200190815260200160002060006101000a81548173ffffffffffffffffffffffffffffffffffffffff021916908373ffffffffffffffffffffffffffffffffffffffff160217905550808273ffffffffffffffffffffffffffffffffffffffff166118ee8361087c565b73ffffffffffffffffffffffffffffffffffffffff167f8c5be1e5ebec7d5bd14f71427d1e84f3dd0314c0f7b2291e5b200ac8c7c3b92560405160405180910390a45050565b600061193f82611807565b61197e576040517f08c379a000000000000000000000000000000000000000000000000000000000815260040161197590613ba9565b60405180910390fd5b60006119898361087c565b90508073ffffffffffffffffffffffffffffffffffffffff168473ffffffffffffffffffffffffffffffffffffffff1614806119f857508373ffffffffffffffffffffffffffffffffffffffff166119e084610541565b73ffffffffffffffffffffffffffffffffffffffff16145b80611a095750611a088185611670565b5b91505092915050565b8273ffffffffffffffffffffffffffffffffffffffff16611a328261087c565b73ffffffffffffffffffffffffffffffffffffffff1614611a88576040517f08c379a0000000000000000000000000000000000000000000000000000000008152600401611a7f90613ca9565b60405180910390fd5b600073ffffffffffffffffffffffffffffffffffffffff168273ffffffffffffffffffffffffffffffffffffffff161415611af8576040517f08c379a0000000000000000000000000000000000000000000000000000000008152600401611aef90613b69565b60405180910390fd5b611b038383836122a4565b611b0e60008261187b565b6001600360008573ffffffffffffffffffffffffffffffffffffffff1673ffffffffffffffffffffffffffffffffffffffff1681526020019081526020016000206000828254611b5e9190613f0e565b925050819055506001600360008473ffffffffffffffffffffffffffffffffffffffff1673ffffffffffffffffffffffffffffffffffffffff1681526020019081526020016000206000828254611bb59190613e2d565b92505081905550816002600083815260200190815260200160002060006101000a81548173ffffffffffffffffffffffffffffffffffffffff021916908373ffffffffffffffffffffffffffffffffffffffff160217905550808273ffffffffffffffffffffffffffffffffffffffff168473ffffffffffffffffffffffffffffffffffffffff167fddf252ad1be2c89b69c2b068fc378daa952ba7f163c4a11628f55a4df523b3ef60405160405180910390a4505050565b60606000821415611cb6576040518060400160405280600181526020017f30000000000000000000000000000000000000000000000000000000000000008152509050611e16565b600082905060005b60008214611ce8578080611cd19061402a565b915050600a82611ce19190613e83565b9150611cbe565b60008167ffffffffffffffff811115611d2a577f4e487b7100000000000000000000000000000000000000000000000000000000600052604160045260246000fd5b6040519080825280601f01601f191660200182016040528015611d5c5781602001600182028036833780820191505090505b5090505b60008514611e0f57600182611d759190613f0e565b9150600a85611d849190614073565b6030611d909190613e2d565b60f81b818381518110611dcc577f4e487b7100000000000000000000000000000000000000000000000000000000600052603260045260246000fd5b60200101907effffffffffffffffffffffffffffffffffffffffffffffffffffffffffffff1916908160001a905350600a85611e089190613e83565b9450611d60565b8093505050505b919050565b600081604051602001611e2e919061367d565b6040516020818303038152906040528051906020012060001c9050919050565b611e59848484611a12565b611e65848484846122a9565b611ea4576040517f08c379a0000000000000000000000000000000000000000000000000000000008152600401611e9b90613b29565b60405180910390fd5b50505050565b606060405180602001604052806000815250905090565b6060611ecc82611807565b611f0b576040517f08c379a0000000000000000000000000000000000000000000000000000000008152600401611f0290613cc9565b60405180910390fd5b6000611f15611eaa565b90506000815111611f355760405180602001604052806000815250611f60565b80611f3f84611c6e565b604051602001611f50929190613694565b6040516020818303038152906040525b915050919050565b600081600001549050919050565b60606000825190506000811415611f9f576040518060200160405280600081525091505061212f565b60006003600283611fb09190613e2d565b611fba9190613e83565b6004611fc69190613eb4565b90506000602082611fd79190613e2d565b67ffffffffffffffff811115612016577f4e487b7100000000000000000000000000000000000000000000000000000000600052604160045260246000fd5b6040519080825280601f01601f1916602001820160405280156120485781602001600182028036833780820191505090505b50905060006040518060600160405280604081526020016141f3604091399050600181016020830160005b868110156120ec5760038101905062ffffff818a015116603f8160121c168401518060081b905060ff603f83600c1c1686015116810190508060081b905060ff603f8360061c1686015116810190508060081b905060ff603f831686015116810190508060e01b90508084526004840193505050612073565b506003860660018114612106576002811461211657612121565b613d3d60f01b6002830352612121565b603d60f81b60018303525b508484525050819450505050505b919050565b61214e828260405180602001604052806000815250612440565b5050565b61215b82611807565b61219a576040517f08c379a000000000000000000000000000000000000000000000000000000000815260040161219190613c29565b60405180910390fd5b806006600084815260200190815260200160002090805190602001906121c192919061267c565b505050565b6001816000016000828254019250508190555050565b6122768383836040516024016121f493929190613aeb565b6040516020818303038152906040527fe3849f79000000000000000000000000000000000000000000000000000000007bffffffffffffffffffffffffffffffffffffffffffffffffffffffff19166020820180517bffffffffffffffffffffffffffffffffffffffffffffffffffffffff838183161783525050505061227b565b505050565b60008151905060006a636f6e736f6c652e6c6f679050602083016000808483855afa5050505050565b505050565b60006122ca8473ffffffffffffffffffffffffffffffffffffffff1661249b565b15612433578373ffffffffffffffffffffffffffffffffffffffff1663150b7a026122f3611873565b8786866040518563ffffffff1660e01b81526004016123159493929190613a24565b602060405180830381600087803b15801561232f57600080fd5b505af192505050801561236057506040513d601f19601f8201168201806040525081019061235d9190612a28565b60015b6123e3573d8060008114612390576040519150601f19603f3d011682016040523d82523d6000602084013e612395565b606091505b506000815114156123db576040517f08c379a00000000000000000000000000000000000000000000000000000000081526004016123d290613b29565b60405180910390fd5b805181602001fd5b63150b7a0260e01b7bffffffffffffffffffffffffffffffffffffffffffffffffffffffff1916817bffffffffffffffffffffffffffffffffffffffffffffffffffffffff191614915050612438565b600190505b949350505050565b61244a83836124ae565b61245760008484846122a9565b612496576040517f08c379a000000000000000000000000000000000000000000000000000000000815260040161248d90613b29565b60405180910390fd5b505050565b600080823b905060008111915050919050565b600073ffffffffffffffffffffffffffffffffffffffff168273ffffffffffffffffffffffffffffffffffffffff16141561251e576040517f08c379a000000000000000000000000000000000000000000000000000000000815260040161251590613c49565b60405180910390fd5b61252781611807565b15612567576040517f08c379a000000000000000000000000000000000000000000000000000000000815260040161255e90613b49565b60405180910390fd5b612573600083836122a4565b6001600360008473ffffffffffffffffffffffffffffffffffffffff1673ffffffffffffffffffffffffffffffffffffffff16815260200190815260200160002060008282546125c39190613e2d565b92505081905550816002600083815260200190815260200160002060006101000a81548173ffffffffffffffffffffffffffffffffffffffff021916908373ffffffffffffffffffffffffffffffffffffffff160217905550808273ffffffffffffffffffffffffffffffffffffffff16600073ffffffffffffffffffffffffffffffffffffffff167fddf252ad1be2c89b69c2b068fc378daa952ba7f163c4a11628f55a4df523b3ef60405160405180910390a45050565b82805461268890613ff8565b90600052602060002090601f0160209004810192826126aa57600085556126f1565b82601f106126c357805160ff19168380011785556126f1565b828001600101855582156126f1579182015b828111156126f05782518255916020019190600101906126d5565b5b5090506126fe9190612702565b5090565b5b8082111561271b576000816000905550600101612703565b5090565b600061273261272d84613d75565b613d44565b90508281526020810184848401111561274a57600080fd5b612755848285613fb6565b509392505050565b600061277061276b84613da5565b613d44565b90508281526020810184848401111561278857600080fd5b612793848285613fb6565b509392505050565b6000813590506127aa81614171565b92915050565b6000813590506127bf81614188565b92915050565b6000813590506127d48161419f565b92915050565b6000815190506127e98161419f565b92915050565b600082601f83011261280057600080fd5b813561281084826020860161271f565b91505092915050565b600082601f83011261282a57600080fd5b813561283a84826020860161275d565b91505092915050565b600081359050612852816141b6565b92915050565b60006020828403121561286a57600080fd5b60006128788482850161279b565b91505092915050565b6000806040838503121561289457600080fd5b60006128a28582860161279b565b92505060206128b38582860161279b565b9150509250929050565b6000806000606084860312156128d257600080fd5b60006128e08682870161279b565b93505060206128f18682870161279b565b925050604061290286828701612843565b9150509250925092565b6000806000806080858703121561292257600080fd5b60006129308782880161279b565b94505060206129418782880161279b565b935050604061295287828801612843565b925050606085013567ffffffffffffffff81111561296f57600080fd5b61297b878288016127ef565b91505092959194509250565b6000806040838503121561299a57600080fd5b60006129a88582860161279b565b92505060206129b9858286016127b0565b9150509250929050565b600080604083850312156129d657600080fd5b60006129e48582860161279b565b92505060206129f585828601612843565b9150509250929050565b600060208284031215612a1157600080fd5b6000612a1f848285016127c5565b91505092915050565b600060208284031215612a3a57600080fd5b6000612a48848285016127da565b91505092915050565b600060208284031215612a6357600080fd5b6000612a7184828501612843565b91505092915050565b60008060408385031215612a8d57600080fd5b6000612a9b85828601612843565b925050602083013567ffffffffffffffff811115612ab857600080fd5b612ac485828601612819565b9150509250929050565b612ad781613f42565b82525050565b612ae681613f54565b82525050565b6000612af782613dea565b612b018185613e00565b9350612b11818560208601613fc5565b612b1a81614160565b840191505092915050565b6000612b3082613df5565b612b3a8185613e11565b9350612b4a818560208601613fc5565b612b5381614160565b840191505092915050565b6000612b6982613df5565b612b738185613e22565b9350612b83818560208601613fc5565b80840191505092915050565b60008154612b9c81613ff8565b612ba68186613e22565b94506001821660008114612bc15760018114612bd257612c05565b60ff19831686528186019350612c05565b612bdb85613dd5565b60005b83811015612bfd57815481890152600182019150602081019050612bde565b838801955050505b50505092915050565b6000612c1b600583613e22565b91507f43484152320000000000000000000000000000000000000000000000000000006000830152600582019050919050565b6000612c5b600583613e22565b91507f20746865200000000000000000000000000000000000000000000000000000006000830152600582019050919050565b6000612c9b603283613e11565b91507f4552433732313a207472616e7366657220746f206e6f6e20455243373231526560008301527f63656976657220696d706c656d656e74657200000000000000000000000000006020830152604082019050919050565b6000612d01601c83613e11565b91507f4552433732313a20746f6b656e20616c7265616479206d696e746564000000006000830152602082019050919050565b6000612d41600a83613e22565b91507f54484952445f574f5244000000000000000000000000000000000000000000006000830152600a82019050919050565b6000612d81600583613e22565b91507f43484152340000000000000000000000000000000000000000000000000000006000830152600582019050919050565b6000612dc1602483613e11565b91507f4552433732313a207472616e7366657220746f20746865207a65726f2061646460008301527f72657373000000000000000000000000000000000000000000000000000000006020830152604082019050919050565b6000612e27601983613e11565b91507f4552433732313a20617070726f766520746f2063616c6c6572000000000000006000830152602082019050919050565b6000612e67606383613e22565b91507f222c20226465736372697074696f6e223a20224120686967686c79206163636c60008301527f61696d656420636f6c6c656374696f6e206f6620737175617265732e222c202260208301527f696d616765223a2022646174613a696d6167652f7376672b786d6c3b6261736560408301527f36342c00000000000000000000000000000000000000000000000000000000006060830152606382019050919050565b6000612f19600583613e22565b91507f43484152310000000000000000000000000000000000000000000000000000006000830152600582019050919050565b6000612f59600b83613e22565b91507f5345434f4e445f574f52440000000000000000000000000000000000000000006000830152600b82019050919050565b6000612f99602c83613e11565b91507f4552433732313a206f70657261746f7220717565727920666f72206e6f6e657860008301527f697374656e7420746f6b656e00000000000000000000000000000000000000006020830152604082019050919050565b6000612fff600583613e22565b91507f43484152360000000000000000000000000000000000000000000000000000006000830152600582019050919050565b600061303f600d83613e22565b91507f3c2f746578743e3c2f7376673e000000000000000000000000000000000000006000830152600d82019050919050565b600061307f600183613e22565b91507f20000000000000000000000000000000000000000000000000000000000000006000830152600182019050919050565b60006130bf600583613e22565b91507f43484152330000000000000000000000000000000000000000000000000000006000830152600582019050919050565b60006130ff603883613e11565b91507f4552433732313a20617070726f76652063616c6c6572206973206e6f74206f7760008301527f6e6572206e6f7220617070726f76656420666f7220616c6c00000000000000006020830152604082019050919050565b6000613165602a83613e11565b91507f4552433732313a2062616c616e636520717565727920666f7220746865207a6560008301527f726f2061646472657373000000000000000000000000000000000000000000006020830152604082019050919050565b60006131cb602983613e11565b91507f4552433732313a206f776e657220717565727920666f72206e6f6e657869737460008301527f656e7420746f6b656e00000000000000000000000000000000000000000000006020830152604082019050919050565b6000613231602e83613e11565b91507f45524337323155524953746f726167653a2055524920736574206f66206e6f6e60008301527f6578697374656e7420746f6b656e0000000000000000000000000000000000006020830152604082019050919050565b6000613297600583613e22565b91507f43484152350000000000000000000000000000000000000000000000000000006000830152600582019050919050565b60006132d7600283613e22565b91507f227d0000000000000000000000000000000000000000000000000000000000006000830152600282019050919050565b6000613317602083613e11565b91507f4552433732313a206d696e7420746f20746865207a65726f20616464726573736000830152602082019050919050565b6000613357603183613e11565b91507f45524337323155524953746f726167653a2055524920717565727920666f722060008301527f6e6f6e6578697374656e7420746f6b656e0000000000000000000000000000006020830152604082019050919050565b60006133bd602c83613e11565b91507f4552433732313a20617070726f76656420717565727920666f72206e6f6e657860008301527f697374656e7420746f6b656e00000000000000000000000000000000000000006020830152604082019050919050565b6000613423602983613e11565b91507f4552433732313a207472616e73666572206f6620746f6b656e2074686174206960008301527f73206e6f74206f776e00000000000000000000000000000000000000000000006020830152604082019050919050565b6000613489602f83613e11565b91507f4552433732314d657461646174613a2055524920717565727920666f72206e6f60008301527f6e6578697374656e7420746f6b656e00000000000000000000000000000000006020830152604082019050919050565b60006134ef600a83613e22565b91507f7b226e616d65223a2022000000000000000000000000000000000000000000006000830152600a82019050919050565b600061352f602183613e11565b91507f4552433732313a20617070726f76616c20746f2063757272656e74206f776e6560008301527f72000000000000000000000000000000000000000000000000000000000000006020830152604082019050919050565b6000613595600a83613e22565b91507f46495253545f574f5244000000000000000000000000000000000000000000006000830152600a82019050919050565b60006135d5601d83613e22565b91507f646174613a6170706c69636174696f6e2f6a736f6e3b6261736536342c0000006000830152601d82019050919050565b6000613615603183613e11565b91507f4552433732313a207472616e736665722063616c6c6572206973206e6f74206f60008301527f776e6572206e6f7220617070726f7665640000000000000000000000000000006020830152604082019050919050565b61367781613fac565b82525050565b60006136898284612b5e565b915081905092915050565b60006136a08285612b5e565b91506136ac8284612b5e565b91508190509392505050565b60006136c48286612b5e565b91506136cf82612c4e565b91506136db8285612b5e565b91506136e682613072565b91506136f28284612b5e565b9150819050949350505050565b600061370b828b612b8f565b9150613717828a612b8f565b91506137238289612b5e565b915061372f8288612b8f565b915061373b8287612b5e565b91506137478286612b8f565b91506137538285612b8f565b915061375f8284612b5e565b915061376a82613032565b91508190509998505050505050505050565b60006137888289612b8f565b91506137948288612b8f565b91506137a08287612b8f565b91506137ac8286612b8f565b91506137b88285612b8f565b91506137c48284612b8f565b9150819050979650505050505050565b60006137df82612c0e565b91506137eb8286612b5e565b91506137f78285612b5e565b91506138038284612b5e565b9150819050949350505050565b600061381b82612d34565b91506138278284612b5e565b915081905092915050565b600061383d82612d74565b91506138498286612b5e565b91506138558285612b5e565b91506138618284612b5e565b9150819050949350505050565b600061387982612f0c565b91506138858286612b5e565b91506138918285612b5e565b915061389d8284612b5e565b9150819050949350505050565b60006138b582612f4c565b91506138c18284612b5e565b915081905092915050565b60006138d782612ff2565b91506138e38286612b5e565b91506138ef8285612b5e565b91506138fb8284612b5e565b9150819050949350505050565b6000613913826130b2565b915061391f8286612b5e565b915061392b8285612b5e565b91506139378284612b5e565b9150819050949350505050565b600061394f8261328a565b915061395b8286612b5e565b91506139678285612b5e565b91506139738284612b5e565b9150819050949350505050565b600061398b826134e2565b91506139978285612b5e565b91506139a282612e5a565b91506139ae8284612b5e565b91506139b9826132ca565b91508190509392505050565b60006139d082613588565b91506139dc8284612b5e565b915081905092915050565b60006139f2826135c8565b91506139fe8284612b5e565b915081905092915050565b6000602082019050613a1e6000830184612ace565b92915050565b6000608082019050613a396000830187612ace565b613a466020830186612ace565b613a53604083018561366e565b8181036060830152613a658184612aec565b905095945050505050565b6000606082019050613a856000830186612ace565b613a92602083018561366e565b8181036040830152613aa48184612b25565b9050949350505050565b6000602082019050613ac36000830184612add565b92915050565b60006020820190508181036000830152613ae38184612b25565b905092915050565b60006060820190508181036000830152613b058186612b25565b9050613b14602083018561366e565b613b216040830184612ace565b949350505050565b60006020820190508181036000830152613b4281612c8e565b9050919050565b60006020820190508181036000830152613b6281612cf4565b9050919050565b60006020820190508181036000830152613b8281612db4565b9050919050565b60006020820190508181036000830152613ba281612e1a565b9050919050565b60006020820190508181036000830152613bc281612f8c565b9050919050565b60006020820190508181036000830152613be2816130f2565b9050919050565b60006020820190508181036000830152613c0281613158565b9050919050565b60006020820190508181036000830152613c22816131be565b9050919050565b60006020820190508181036000830152613c4281613224565b9050919050565b60006020820190508181036000830152613c628161330a565b9050919050565b60006020820190508181036000830152613c828161334a565b9050919050565b60006020820190508181036000830152613ca2816133b0565b9050919050565b60006020820190508181036000830152613cc281613416565b9050919050565b60006020820190508181036000830152613ce28161347c565b9050919050565b60006020820190508181036000830152613d0281613522565b9050919050565b60006020820190508181036000830152613d2281613608565b9050919050565b6000602082019050613d3e600083018461366e565b92915050565b6000604051905081810181811067ffffffffffffffff82111715613d6b57613d6a614131565b5b8060405250919050565b600067ffffffffffffffff821115613d9057613d8f614131565b5b601f19601f8301169050602081019050919050565b600067ffffffffffffffff821115613dc057613dbf614131565b5b601f19601f8301169050602081019050919050565b60008190508160005260206000209050919050565b600081519050919050565b600081519050919050565b600082825260208201905092915050565b600082825260208201905092915050565b600081905092915050565b6000613e3882613fac565b9150613e4383613fac565b9250827fffffffffffffffffffffffffffffffffffffffffffffffffffffffffffffffff03821115613e7857613e776140a4565b5b828201905092915050565b6000613e8e82613fac565b9150613e9983613fac565b925082613ea957613ea86140d3565b5b828204905092915050565b6000613ebf82613fac565b9150613eca83613fac565b9250817fffffffffffffffffffffffffffffffffffffffffffffffffffffffffffffffff0483118215151615613f0357613f026140a4565b5b828202905092915050565b6000613f1982613fac565b9150613f2483613fac565b925082821015613f3757613f366140a4565b5b828203905092915050565b6000613f4d82613f8c565b9050919050565b60008115159050919050565b60007fffffffff0000000000000000000000000000000000000000000000000000000082169050919050565b600073ffffffffffffffffffffffffffffffffffffffff82169050919050565b6000819050919050565b82818337600083830152505050565b60005b83811015613fe3578082015181840152602081019050613fc8565b83811115613ff2576000848401525b50505050565b6000600282049050600182168061401057607f821691505b6020821081141561402457614023614102565b5b50919050565b600061403582613fac565b91507fffffffffffffffffffffffffffffffffffffffffffffffffffffffffffffffff821415614068576140676140a4565b5b600182019050919050565b600061407e82613fac565b915061408983613fac565b925082614099576140986140d3565b5b828206905092915050565b7f4e487b7100000000000000000000000000000000000000000000000000000000600052601160045260246000fd5b7f4e487b7100000000000000000000000000000000000000000000000000000000600052601260045260246000fd5b7f4e487b7100000000000000000000000000000000000000000000000000000000600052602260045260246000fd5b7f4e487b7100000000000000000000000000000000000000000000000000000000600052604160045260246000fd5b6000601f19601f8301169050919050565b61417a81613f42565b811461418557600080fd5b50565b61419181613f54565b811461419c57600080fd5b50565b6141a881613f60565b81146141b357600080fd5b50565b6141bf81613fac565b81146141ca57600080fd5b5056fe416e204e465420772f20494420257320686173206265656e206d696e74656420746f2025734142434445464748494a4b4c4d4e4f505152535455565758595a6162636465666768696a6b6c6d6e6f707172737475767778797a303132333435363738392b2fa26469706673582212203e3204df56c9d8a3f97083820eed5484bc82f9debab9c1f9b14486666169eba264736f6c634300080000333c646566733e3c6c696e6561724772616469656e742069643d2772616e646f6d6772616469656e74272078313d27353025272079313d272d322e3438393439383133652d313525272078323d27353025272079323d273130302527203e3c73746f702073746f702d636f6c6f723d27233c73766720786d6c6e733d27687474703a2f2f7777772e77332e6f72672f323030302f73766727207072657365727665417370656374526174696f3d27784d696e594d696e206d656574272076696577426f783d273020302033353020333530273e203c7374796c653e2e62617365207b2066696c6c3a2077686974653b20666f6e742d66616d696c793a2073657269663b20666f6e742d73697a653a20323470783b207d3c2f7374796c653e3c726563742077696474683d273130302527206865696768743d2731303025272066696c6c3d2775726c282372616e646f6d6772616469656e742927202f3e3c7465787420783d273530252720793d273530252720636c6173733d27626173652720646f6d696e616e742d626173656c696e653d276d6964646c652720746578742d616e63686f723d276d6964646c65273e27206f66667365743d2731303025272f3e3c2f6c696e6561724772616469656e743e3c2f646566733e27206f66667365743d273025272f3e3c73746f702073746f702d636f6c6f723d2723",
  "linkReferences": {},
  "deployedLinkReferences": {}
}